:020000040800F2
:10000000000400202501000881010008810100088A
:100010008101000881010008810100080000000042
:100020000000000000000000000000008101000846
:100030008101000800000000810100088101000822
:100040008101000881010008810100088101000888
:100050008101000881010008810100088101000878
:100060008101000881010008810100088101000868
:100070008101000881010008810100088101000858
:1000800081010008810100088101000800000000D2
:1000900000000000000000000000000081010008D6
:1000A0008101000881010008810100088101000828
:1000B0008101000881010008810100088101000818
:1000C0008101000881010008810100088101000808
:1000D00081010008810100088101000881010008F8
:1000E0008101000881010008810100080000000072
:1000F0000000000000000000000000000000000000
:1001000000000000000000000000000000000000EF
:1001100000000000000000008101000881010008CB
:100120005FF808F180B582B000AF104B7B60104BD8
:100130003B6007E03B681A1D3A607A68111D7960E0
:1001400012681A603B680B4A9342F3D30A480B4982
:100150004FF000028842B8BF40F8042BFADB00F0F1
:1001600013F800F0B9F80837BD4680BD7C0F0008D1
:1001700000000020000000200000002000000020FF
:1001800080B400AFFEE700BF80B500AF164A164B43
:100190001B6843F0010313601349134B5A68134B58
:1001A00013404B60104A104B1B6823F0847323F4F8
:1001B000803313600C4A0C4B1B6823F480231360BC
:1001C000094A094B5B6823F4FE035360064B4FF466
:1001D0001F029A60044B0022DA6200F00BF8044B15
:1001E0004FF000629A6080BD001002400000FFF8EE
:1001F00000ED00E080B500AF00F002F880BD00BF68
:1002000080B483B000AF00237B6000233B60304AA2
:100210002F4B1B6843F4803313602D4B1B6803F492
:1002200000333B607B6801337B603B68002B03D16C
:100230007B68B3F5A06FF0D1254B1B6803F4003346
:10024000002B02D001233B6001E000233B603B68B0
:10025000012B37D11E4A1E4B5B6853601C4A1C4B56
:100260005B6853601A4A1A4B5B685360184A184B14
:100270005B6823F47C135360154A154B5B6843F4A9
:1002800098135360124A124B1B6843F0807313603B
:1002900000BF0F4B1B6803F00073002BF9D00C4A12
:1002A0000B4B5B6823F003035360094A084B5B6800
:1002B00043F00203536000BF054B5B6803F00C037F
:1002C000082BF9D10C37BD465DF8047B704700BFA1
:1002D000001002400000000080B584B000AF00F0C4
:1002E00041FA1B48012100F0C3F81948012100F030
:1002F0002BF900BF1648022100F01AFA0346002B22
:10030000F8D0134800F006FA0346184600F0AEFB9A
:1003100002460B46C7E90223D7E902010AA3D3E943
:10032000002300F019FC02460B46104619464FF018
:100330000002084B00F03AFD02460B46C7E90023D5
:10034000D3E700BFAFF300806666666666660A4064
:10035000002401400000B04080B485B000AF786058
:100360000023FB60094B5B68FB60FB6823F44043A0
:10037000FB60FA687B681343FB60044AFB685360C8
:100380001437BD465DF8047B704700BF0010024083
:1003900080B483B000AF78600B46FB70FB78002B15
:1003A00006D00949084B9A697B6813438B6106E0C4
:1003B0000549054B9A697B68DB4313408B610C3719
:1003C000BD465DF8047B70470010024080B485B0E4
:1003D00000AF786039600023FB600023FB727B680C
:1003E0005B68FB60FB6823F4702323F48073FB607D
:1003F0003B681A683B681B791B021343FA68134376
:10040000FB607B68FA685A607B689B68FB60FA68EF
:10041000164B1340FB603B68DA683B689B681A43E5
:100420003B685B795B001343FA681343FB607B68AE
:10043000FA689A607B68DB6AFB60FB6823F47003F0
:10044000FB603B681B7C013BDAB2FB7A1343FB7217
:10045000FB7A1B05FA681343FB607B68FA68DA6273
:100460001437BD465DF8047B704700BFFDF7F1FF10
:1004700080B483B000AF78600B46FB70FB78002B34
:1004800006D07B689B6843F001027B689A6005E0B8
:100490007B689B6823F001027B689A600C37BD463D
:1004A0005DF8047B704700BF80B483B000AF786014
:1004B0007B689B6843F008027B689A600C37BD46F6
:1004C0005DF8047B704700BF80B485B000AF7860F2
:1004D0000023FB737B689B6803F00803002B02D0AA
:1004E0000123FB7301E00023FB73FB7B18461437E9
:1004F000BD465DF8047B704780B483B000AF786080
:100500007B689B6843F004027B689A600C37BD46A9
:100510005DF8047B704700BF80B485B000AF7860A1
:100520000023FB737B689B6803F00403002B02D05D
:100530000123FB7301E00023FB73FB7B1846143798
:10054000BD465DF8047B704780B483B000AF78602F
:100550000B46FB70FB78002B06D07B689B6843F44E
:10056000A0027B689A6005E07B689B6823F4A00288
:100570007B689A600C37BD465DF8047B704700BF0E
:1005800080B485B000AF7860084611461A4603462D
:10059000FB700B46BB7013467B700023FB6000238F
:1005A000BB60FB78092B23D97B68DB68FB60FB7899
:1005B000A3F10A0213465B001344072202FA03F375
:1005C000BB60BB68DB43FA681340FB607978FB785B
:1005D000A3F10A0213465B00134401FA03F3BB6064
:1005E000FA68BB681343FB607B68FA68DA601EE058
:1005F0007B681B69FB60FA7813465B001344072293
:1006000002FA03F3BB60BB68DB43FA681340FB608C
:100610007978FA7813465B00134401FA03F3BB6060
:10062000FA68BB681343FB607B68FA681A61BB78A1
:10063000062B21D87B685B6BFB60BB785A1E134688
:100640009B0013441F2202FA03F3BB60BB68DB4329
:10065000FA681340FB60F978BB785A1E13469B007A
:10066000134401FA03F3BB60FA68BB681343FB60F1
:100670007B68FA685A6347E0BB780C2B21D87B680B
:100680001B6BFB60BB78DA1F13469B0013441F22D1
:1006900002FA03F3BB60BB68DB43FA681340FB60FC
:1006A000F978BB78DA1F13469B00134401FA03F371
:1006B000BB60FA68BB681343FB607B68FA681A6327
:1006C00022E07B68DB6AFB60BB78A3F10D02134676
:1006D0009B0013441F2202FA03F3BB60BB68DB4399
:1006E000FA681340FB60F978BB78A3F10D0213465A
:1006F0009B00134401FA03F3BB60FA68BB68134321
:10070000FB607B68FA68DA621437BD465DF8047BEB
:10071000704700BF80B483B000AF78607B68DB6C4B
:100720009BB218460C37BD465DF8047B704700BF8E
:1007300080B485B000AF78600B46FB700023FB737C
:100740007B681A68FB781340002B02D00123FB73EF
:1007500001E00023FB73FB7B18461437BD465DF8B0
:10076000047B704780B586B000AF4FF40040FFF7C0
:10077000F3FD4FF400700121FFF70AFE00237B72A6
:1007800000233B614FF46023FB6000237B60012367
:100790003B7500233B723B1D12481946FFF716FEBE
:1007A0001048002101220023FFF7EAFE0D48012135
:1007B000FFF75EFE0B48FFF777FE00BF0948FFF723
:1007C00083FE0346002BF9D10648FFF795FE00BFD4
:1007D0000448FFF7A1FE0346002BF9D11837BD46A8
:1007E00080BD00BF0024014081F0004102E000BF55
:1007F00083F0004330B54FEA41044FEA430594EAE1
:10080000050F08BF90EA020F1FBF54EA000C55EA1B
:10081000020C7FEA645C7FEA655C00F0E2804FEAEC
:100820005454D4EB5555B8BF6D420CDD2C4480EACE
:10083000020281EA030382EA000083EA010180EAFE
:10084000020281EA0303362D88BF30BD11F0004F4C
:100850004FEA01314FF4801C4CEA113102D0404282
:1008600061EB410113F0004F4FEA03334CEA1333BD
:1008700002D0524263EB430394EA050F00F0A780D5
:10088000A4F10104D5F1200E0DDB02FA0EFC22FAD0
:1008900005F2801841F1000103FA0EF2801843FAC4
:1008A00005F359410EE0A5F120050EF1200E012AB5
:1008B00003FA0EFC28BF4CF0020C43FA05F3C018F3
:1008C00051EBE37101F0004507D54FF0000EDCF16C
:1008D000000C7EEB00006EEB0101B1F5801F1BD315
:1008E000B1F5001F0CD349085FEA30004FEA3C0C19
:1008F00004F101044FEA445212F5800F80F09A800F
:10090000BCF1004F08BF5FEA500C50F1000041EB12
:10091000045141EA050130BD5FEA4C0C404141EB16
:10092000010111F4801FA4F10104E9D191F0000F3D
:1009300004BF01460020B1FA81F308BF2033A3F1C0
:100940000B03B3F120020CDA0C3208DD02F1140CB7
:10095000C2F10C0201FA0CF021FA02F10CE002F1F2
:100960001402D8BFC2F1200C01FA02F120FA0CFCEB
:10097000DCBF41EA0C019040E41AA2BF01EB045134
:10098000294330BD6FEA04041F3C1CDA0C340EDC32
:1009900004F11404C4F1200220FA04F001FA02F375
:1009A00040EA030021FA04F345EA030130BDC4F133
:1009B0000C04C4F1200220FA02F001FA04F340EA28
:1009C0000300294630BD21FA04F0294630BD94F0D9
:1009D000000F83F4801306BF81F480110134013DC0
:1009E0004EE77FEA645C18BF7FEA655C29D094EA31
:1009F000050F08BF90EA020F05D054EA000C04BFAF
:100A00001946104630BD91EA030F1EBF0021002099
:100A100030BD5FEA545C05D14000494128BF41F038
:100A2000004130BD14F580043CBF01F5801130BD9C
:100A300001F0004545F0FE4141F470014FF0000027
:100A400030BD7FEA645C1ABF194610467FEA655CD8
:100A50001CBF0B46024650EA013406BF52EA03357A
:100A600091EA030F41F4002130BD00BF90F0000F68
:100A700004BF0021704730B54FF4806404F13204A4
:100A80004FF000054FF0000150E700BF90F0000F5D
:100A900004BF0021704730B54FF4806404F1320484
:100AA00010F0004548BF40424FF000013EE700BF54
:100AB00042004FEAE2014FEA31014FEA02701FBFE4
:100AC00012F07F4393F07F4F81F06051704792F0B6
:100AD000000F14BF93F07F4F704730B54FF4607430
:100AE00001F0004521F0004120E700BF50EA01027B
:100AF00008BF704730B54FF000050AE050EA010228
:100B000008BF704730B511F0004502D5404261EB97
:100B100041014FF4806404F132045FEA915C3FF4D8
:100B2000DCAE4FF003025FEADC0C18BF03325FEA71
:100B3000DC0C18BF033202EBDC02C2F1200300FA26
:100B400003FC20FA02F001FA03FE40EA0E0021FA4B
:100B500002F11444C1E600BF70B54FF0FF0C4CF435
:100B6000E06C1CEA11541DBF1CEA135594EA0C0FEB
:100B700095EA0C0F00F0DEF82C4481EA030621EA26
:100B80004C5123EA4C5350EA013518BF52EA033561
:100B900041F4801143F4801338D0A0FB02CE4FF013
:100BA0000005E1FB02E506F00042E0FB03E54FF043
:100BB0000006E1FB03569CF0000F18BF4EF0010E3B
:100BC000A4F1FF04B6F5007F64F5407404D25FEA37
:100BD0004E0E6D4146EB060642EAC62141EA5551EA
:100BE0004FEAC52040EA5E504FEACE2EB4F1FD0C2C
:100BF00088BFBCF5E06F1ED8BEF1004F08BF5FEAAA
:100C0000500E50F1000041EB045170BD06F000465B
:100C100046EA010140EA020081EA0301B4EB5C0408
:100C2000C2BFD4EB0C0541EA045170BD41F4801100
:100C30004FF0000E013C00F3AB8014F1360FDEBF25
:100C4000002001F0004170BDC4F10004203C35DA01
:100C50000C341BDC04F11404C4F1200500FA05F384
:100C600020FA04F001FA05F240EA020001F0004225
:100C700021F0004110EBD37021FA04F642EB06019B
:100C80005EEA430E08BF20EAD37070BDC4F10C04C5
:100C9000C4F1200500FA04F320FA05F001FA04F289
:100CA00040EA020001F0004110EBD37041F1000175
:100CB0005EEA430E08BF20EAD37070BDC4F1200580
:100CC00000FA05F24EEA020E20FA04F301FA05F2E8
:100CD00043EA020321FA04F001F0004121FA04F290
:100CE00020EA020000EBD3705EEA430E08BF20EA60
:100CF000D37070BD94F0000F0FD101F0004640009A
:100D000041EB010111F4801F08BF013CF7D041EA1B
:100D1000060195F0000F18BF704703F0004652001F
:100D200043EB030313F4801F08BF013DF7D043EAF0
:100D30000603704794EA0C0F0CEA135518BF95EAA6
:100D40000C0F0CD050EA410618BF52EA4306D1D12D
:100D500081EA030101F000414FF0000070BD50EA4C
:100D6000410606BF1046194652EA430619D094EAD6
:100D70000C0F02D150EA013613D195EA0C0F05D1C0
:100D800052EA03361CBF104619460AD181EA030114
:100D900001F0004141F0FE4141F470014FF00000CC
:100DA00070BD41F0FE4141F4780170BD70B54FF067
:100DB000FF0C4CF4E06C1CEA11541DBF1CEA1355E7
:100DC00094EA0C0F95EA0C0F00F0A7F8A4EB0504C9
:100DD00081EA030E52EA03354FEA013100F08880C0
:100DE0004FEA03334FF0805545EA131343EA126389
:100DF0004FEA022245EA111545EA10654FEA00263E
:100E00000EF000419D4208BF964244F1FD0404F5F6
:100E1000407402D25B084FEA3202B61A65EB030552
:100E20005B084FEA32024FF480104FF4002CB6EB0F
:100E3000020E75EB030E22BFB61A754640EA0C008F
:100E40005B084FEA3202B6EB020E75EB030E22BFCF
:100E5000B61A754640EA5C005B084FEA3202B6EB10
:100E6000020E75EB030E22BFB61A754640EA9C00CF
:100E70005B084FEA3202B6EB020E75EB030E22BF9F
:100E8000B61A754640EADC0055EA060E18D04FEA5D
:100E9000051545EA16754FEA06164FEAC30343EAFD
:100EA00052734FEAC2025FEA1C1CC0D111F4801FCA
:100EB0000BD141EA00014FF000004FF0004CB6E7C3
:100EC00011F4801F04BF01430020B4F1FD0C88BF62
:100ED000BCF5E06F3FF6AFAEB5EB030C04BFB6EB6D
:100EE000020C5FEA500C50F1000041EB045170BD60
:100EF0000EF0004E4EEA113114EB5C04C2BFD4EB8D
:100F00000C0541EA045170BD41F480114FF0000E10
:100F1000013C90E645EA060E8DE60CEA135594EA8C
:100F20000C0F08BF95EA0C0F3FF43BAF94EA0C0F8F
:100F30000AD150EA01347FF434AF95EA0C0F7FF404
:100F400025AF104619462CE795EA0C0F06D152EA58
:100F500003353FF4FDAE1046194622E750EA41063C
:100F600018BF52EA43067FF4C5AE50EA41047FF44D
:0C0F70000DAF52EA43057FF4EBAE12E730
:0400000508000000EF
:00000001FF
