:020000040800F2
:100000000020002041020008850200088502000847
:100010008502000885020008850200080000000033
:100020000000000000000000000000008502000841
:100030008502000800000000850200088502000813
:100040008502000885020008850200088502000874
:100050008502000885020008850200088502000864
:100060008502000885020008850200088502000854
:100070008502000885020008850200088502000844
:100080008502000885020008FD1400080000000039
:1000900000000000000000000000000085020008D1
:1000A000850200084518000885020008850200083E
:1000B0008502000885020008850200088502000804
:1000C00085020008850200088502000885020008F4
:1000D00085020008850200088502000885020008E4
:1000E00085020008850200088502000885020008D4
:1000F00085020008850200080000000000000000E2
:1001000000000000000000008502000885020008D1
:10011000850200088502000885020008E5540008F1
:100120008502000885020008850200088502000893
:100130008502000800000000000000000000000030
:1001400000000000000000000000000000000000AF
:10015000000000000000000000000000000000009F
:10016000000000000000000000000000000000008F
:10017000000000000000000000000000000000007F
:10018000000000000000000000000000000000006F
:10019000000000000000000000000000000000005F
:1001A000000000000000000000000000000000004F
:1001B000000000000000000000000000000000003F
:1001C000000000000000000000000000000000002F
:1001D000000000000000000000000000000000001F
:1001E0005FF808F110B5054C237833B9044B13B10F
:1001F0000448AFF300800123237010BD6004002089
:100200000000000064B30008084B10B51BB108489B
:100210000849AFF300800848036803B910BD074BD5
:10022000002BFBD0BDE81040184700BF00000000C5
:1002300064B30008640400205C0400200000000097
:10024000002103E00A4B5B584350043109480A4B34
:1002500042189A42F6D3094A02E0002342F8043BCE
:10026000074B9A42F9D301F09BFB05F0F9FC70476C
:1002700064B3000800000020600400206004002037
:1002800074080020FEE7000080B582B000AF7860FF
:100290007B682F4A934208D10420012102F0DCFC44
:1002A0000420002102F0D8FC4EE07B68294A9342EA
:1002B00008D10820012102F0CFFC0820002102F023
:1002C000CBFC41E07B68244A934208D110200121F5
:1002D00002F0C2FC1020002102F0BEFC34E07B687A
:1002E0001E4A934208D12020012102F0B5FC2020B3
:1002F000002102F0B1FC27E07B68194A934208D143
:100300004020012102F0A8FC4020002102F0A4FCC2
:100310001AE07B68134A934208D18020012102F041
:100320009BFC8020002102F097FC0DE07B680E4AC8
:10033000934209D14FF48070012102F08DFC4FF4FB
:100340008070002102F088FC0837BD4680BD00BFE8
:1003500000080140000C0140001001400014014061
:1003600000180140001C01400020014080B500AF92
:100370000120012102F070FC0120002102F06CFC40
:1003800080BD00BF80B489B000AF786039600023C1
:10039000FB6100233B610023BB610023FB60002362
:1003A0007B610023BB603B68DB7803F00F03FB61DC
:1003B0003B68DB7803F01003002B05D03B689B788B
:1003C0001A46FB691343FB613B681B88DBB2002BB9
:1003D00044D07B681B687B610023BB6138E0BB694C
:1003E000012202FA03F3FB603B681B881A46FB6894
:1003F00013403B613A69FB689A4226D1BB699B0076
:10040000FB60FB680F2202FA03F3BB60BB68DB43AF
:100410007A6913407B61FB68FA6902FA03F37A692F
:1004200013437B613B68DB78282B05D1BB69012234
:100430009A407B685A6108E03B68DB78482B04D11E
:10044000BB6901229A407B681A61BB690133BB61B9
:10045000BB69072BC3D97B687A691A603B681B8824
:10046000FF2B4AD97B685B687B610023BB613EE060
:10047000BB6908331A4601239340FB603B681B8825
:100480001A46FB6813403B613A69FB689A422BD1DC
:10049000BB699B00FB60FB680F2202FA03F3BB60A1
:1004A000BB68DB437A6913407B61FB68FA6902FA37
:1004B00003F37A6913437B613B68DB78282B07D110
:1004C000BB6908331A46012303FA02F27B685A61BA
:1004D0003B68DB78482B07D1BB6908331A460123F8
:1004E00003FA02F27B681A61BB690133BB61BB6925
:1004F000072BBDD97B687A695A602437BD465DF801
:10050000047B704780B483B000AF78607B684FF69F
:10051000FF721A807B6802229A707B680422DA706C
:100520000C37BD465DF8047B704700BF80B485B0D2
:1005300000AF78600B467B800023FB737B689A6872
:100540007B881340002B02D00123FB7301E00023C2
:10055000FB73FB7B18461437BD465DF8047B704780
:1005600080B483B000AF78607B689B689BB218460C
:100570000C37BD465DF8047B704700BF80B485B082
:1005800000AF78600B467B800023FB737B68DA68E2
:100590007B881340002B02D00123FB7301E0002372
:1005A000FB73FB7B18461437BD465DF8047B704730
:1005B00080B483B000AF78607B68DB689BB218467C
:1005C0000C37BD465DF8047B704700BF80B483B034
:1005D00000AF78600B467B807A887B681A610C37A5
:1005E000BD465DF8047B704780B483B000AF78608F
:1005F0000B467B807A887B685A610C37BD465DF874
:10060000047B704780B483B000AF78600B467B807A
:1006100013467B707B78002B03D07A887B681A6145
:1006200002E07A887B685A610C37BD465DF8047B2E
:10063000704700BF80B483B000AF78600B467B800A
:100640007A887B68DA600C37BD465DF8047B7047BA
:1006500080B485B000AF78600B467B804FF4803368
:10066000FB607B88FA681343FB607B68FA689A61D9
:100670007A887B689A617B68FA689A617B689B6973
:10068000FB607B689B69FB601437BD465DF8047BAB
:10069000704700BF80B485B000AF03460A46FB71C7
:1006A0001346BB710023FB600C4B1B68FB60FA68B0
:1006B0004FF680731340FB60FB791B01FA6813430C
:1006C000FB60BB79FA681343FB60044AFB68136064
:1006D0001437BD465DF8047B704700BF0000014041
:1006E00080B483B000AF0346FB71044AFB7913600A
:1006F0000C37BD465DF8047B704700BF1C002042EC
:1007000080B487B000AF78600B46FB7000233B617C
:100710000023FB6000237B610023BB607B68002B10
:1007200003DA2E4BDB697B6102E02C4B5B687B615B
:100730007B6803F470231B0CBB607B689BB23B613E
:100740007B6803F44013B3F5401F0AD17B6923F0A3
:1007500070637B61214A214B5B6823F070635360B7
:1007600021E07B6803F48013002B0ED0BB680322CA
:1007700002FA03F3FB60FB68DB437A6913407B6199
:100780007B6943F070637B610DE07B685B0D1B014F
:100790001A463B699340DB437A6913407B617B696E
:1007A00043F070637B61FB78002B08D07B685B0DA6
:1007B0001B011A463B6993407A6913437B617B684E
:1007C000002B03DA054A7B69D36102E0034A7B69A7
:1007D00053601C37BD465DF8047B70470000014044
:1007E00090B484B000AF03460A46FB711346BB7158
:1007F0000023FB60BB7903F003039B000F2202FA86
:1008000003F3FB601649BB799B08DBB21846144A18
:10081000BB799B08DBB2023352F82320FB68DB4331
:100820001A40831C41F823200D48BB799B08DBB29A
:100830001C460B4ABB799B08DBB2023352F82320DB
:10084000F979BB7903F003039B0001FA03F31A4320
:10085000A31C40F823201037BD4690BC704700BF52
:100860000000014080B483B000AF7860034A7B6829
:1008700013600C37BD465DF8047B7047DC002042F6
:1008800080B483B000AF786002E07B68013B7B609E
:100890007B68002BF9D10C37BD465DF8047B7047AF
:1008A00080B582B000AF1020012102F099F90F232A
:1008B000BB801023FB710323BB713B1D2E481946DF
:1008C000FFF760FD2C4A2C4BDB6823F00203D3605A
:1008D000294A294BDB6823F00103D3601F20FFF76F
:1008E000CFFF254A244BDB6843F00103D36000208F
:1008F000E22100F071F800203A2100F06DF80020AC
:10090000EF2100F069F80020042100F065F80020D4
:10091000D02100F061F80020202100F05DF80020D7
:10092000902100F059F80020A42100F055F8002093
:100930002F2100F051F80020402100F04DF8002058
:10094000B02100F049F80020102100F045F8002007
:10095000002100F041F80020AC2100F03DF800201B
:10096000072100F039F80020AF2100F035F800F041
:1009700005F80837BD4680BD0010014080B582B043
:1009800000AF0020402100F027F80020B02100F047
:1009900023F80020102100F01FF80020002100F0B3
:1009A0001BF80B4B00221A700A4B00221A7000230E
:1009B000FB8006E00120002100F00EF8FB880133E7
:1009C000FB80FB88B3F5587FF4D30837BD4680BD64
:1009D000D3070020D407002080B584B000AF0346C1
:1009E0000A46FB711346BB713F4A3F4BDB6823F05D
:1009F0000203D3603C4A3C4BDB6823F00803D3601E
:100A0000FB79002B2ED0394B1B781946384B1B78BD
:100A10001846384A0B46DB000B4403441344BA79AA
:100A20001A70324B1B780133DAB2304B1A702F4BED
:100A30001B785F2B08D92D4B00221A702C4B1B788A
:100A40000133DAB22A4B1A70294B1B78082B02D9D2
:100A5000274B00221A70244A234BDB6843F004031F
:100A6000D36005E0204A204BDB6823F00403D36009
:100A70001D4A1D4BDB6843F00803D3600023FB7362
:100A800025E0194A184BDB6823F00803D360BB79D3
:100A90005BB2002B06DA144A134BDB6843F0040305
:100AA000D36005E0104A104BDB6823F00403D360E9
:100AB0000D4A0D4BDB6843F00803D360BB795B0044
:100AC000BB711920FFF7DCFEFB7B0133FB73FB7B63
:100AD000072BD6D9044A044BDB6843F00203D360EA
:100AE0001037BD4680BD00BF00100140D307002075
:100AF000D40700207C04002080B584B000AF0346FA
:100B0000FB71FB795BB2002B02DAFB79403BFB7196
:100B10000023FB7311E0FB79A3F12002F97B0C4861
:100B200013469B0013440B4403441B7801201946D1
:100B3000FFF752FFFB7B0133FB73FB7B042BEAD9EE
:100B400001200021FFF748FF1037BD4680BD00BFE0
:100B5000DC66000880B584B000AF0346FB71FB790A
:100B60005BB2002B02DAFB79403BFB710023FB7385
:100B700018E0FB79A3F12002F97B0F4813469B0094
:100B800013440B4403441B78BB73BB7B0120194601
:100B9000FFF722FFBB7B01201946FFF71DFFFB7B00
:100BA0000133FB73FB7B042BE3D901200021FFF70A
:100BB00013FF1037BD4680BDDC66000880B582B0EB
:100BC00000AF786006E07B685A1C7A601B78184694
:100BD000FFF792FF7B681B78002BF4D10837BD46E6
:100BE00080BD00BF80B584B000AF786006E0FB7BBD
:100BF0001846FFF781FF7B6801337B607B681B78B9
:100C0000FB73FB7B002BF2D11037BD4680BD00BFCC
:100C100080B582B000AF786006E07B685A1C7A60CD
:100C20001B781846FFF796FF7B681B78002BF4D1E2
:100C30000837BD4680BD00BF80B582B000AF034617
:100C40000A46FB711346BB71FB791A4652001344E6
:100C50005B00FB71154AFB791370154ABB79137061
:100C6000BB7903F00F03DBB263F04F03DBB2DBB2FF
:100C700000201946FFF7B0FEFB7903F00F03DBB24B
:100C800000201946FFF7A8FEFB791B09DBB2DBB297
:100C900003F00703DBB243F01003DBB2DBB200204A
:100CA0001946FFF799FE0837BD4680BDD3070020DF
:100CB000D407002080B582B000AF0346FB71FB79FA
:100CC000002B04D00020A621FFF786FE03E00020C1
:100CD000A721FFF781FE0837BD4680BD80B582B0F1
:100CE00000AF03460A46FB711346BB71174AFB79F6
:100CF0001370BB79DB08DAB2154B1A70144B1B78F2
:100D0000DBB203F00F03DBB263F04F03DBB2DBB205
:100D100000201946FFF760FEFB7903F00F03DBB2FA
:100D200000201946FFF758FEFB791B09DBB2DBB246
:100D300003F00703DBB243F01003DBB2DBB20020A9
:100D40001946FFF749FE0837BD4680BDD30700208E
:100D5000D407002080B584B000AF0346FB710B467A
:100D6000BB7113467B71FA79BB7910461946FFF7C0
:100D7000B5FF254B1B781946244B1B781846244A8F
:100D80000B46DB000B44034413441B78FB737B7955
:100D9000012B0BD0022B19D0002B1FD1BB7903F0F4
:100DA0000703DAB2FB7B1343FB7317E0BB79DA432B
:100DB000184B1340002B03DA013B63F007030133A8
:100DC000DAB2FB7B1340DBB2FB7307E0BB7903F0C5
:100DD0000703DAB2FB7B5340FB7300BF0A4B1B785F
:100DE00019460A4B1B781846094A0B46DB000B4490
:100DF00003441344FA7B1A70FB7B01201946FFF76A
:100E0000EBFD1037BD4680BDD3070020D40700207E
:100E10007C0400200700008090B589B000AF044634
:100E2000084611461A462346FB710346BB710B4622
:100E30007B7113463B710123FB770123BB770023B2
:100E4000FB757A79FB79D31A002BB8BF5B423B6103
:100E50003A79BB79D31A002BB8BF5B42FB60FA79B1
:100E60007B799A4201D9FF23FB77BA793B799A4281
:100E700001D9FF23BB773A69FB689A4234DBFB68F0
:100E80005B00FB60FA683B69D31ABB61BA693B69D6
:100E9000D31ABB6023E0F979BA7997F83030084665
:100EA00011461A46FFF756FFBB69002B08DABA69EC
:100EB000FB681344BB61FA7FFB791344FB710BE0C1
:100EC000BA69BB681344BB61FA7FFB791344FB71B9
:100ED000BA7FBB791344BB71FB7D0133FB75FA7D8F
:100EE0003B699A42D7DD33E03B695B003B613A697D
:100EF000FB68D31ABB61BA69FB68D31ABB6023E0F5
:100F0000F979BA7997F83030084611461A46FFF752
:100F100021FFBB69002B08DABA693B691344BB6146
:100F2000BA7FBB791344BB710BE0BA69BB68134449
:100F3000BB61FA7FFB791344FB71BA7FBB79134421
:100F4000BB71FB7D0133FB75FA7DFB689A42D7DDEF
:100F50002437BD4690BD00BFB0B586B002AF044691
:100F6000084611461A462346FB710346BB710B46E1
:100F70007B7113463B710023FB737B79BB737B79D9
:100F8000C3F10103DBB27B733B79002B5CD0FB7BAD
:100F9000FA79D31AD8B2BA7BBB791344D9B2FA7BA7
:100FA000FB791344DDB2BA7BBB791344DCB297F80A
:100FB000203000932A462346FFF72EFFFB7BFA7969
:100FC000D31AD8B2BB7BBA79D31AD9B2FA7BFB79E0
:100FD0001344DDB2BB7BBA79D31ADCB297F8203068
:100FE00000932A462346FFF717FFBB7BFA79D31AF3
:100FF000D8B2FA7BBB791344D9B2BA7BFB791344DC
:10100000DDB2FA7BBB791344DCB297F82030009351
:101010002A462346FFF700FFBB7BFA79D31AD8B2E2
:10102000FB7BBA79D31AD9B2BA7BFB791344DDB210
:10103000FB7BBA79D31ADCB297F8203000932A46AA
:101040002346FFF7E9FE77E0FA7BFB791344D9B238
:10105000BA7BBB791344DAB297F8203008461146C0
:101060001A46FFF777FEBA7BFB791344D9B2FA7BB5
:10107000BB791344DAB297F82030084611461A4675
:10108000FFF768FEFB7BFA79D31AD9B2BA7BBB793A
:101090001344DAB297F82030084611461A46FFF793
:1010A00059FEBB7BFA79D31AD9B2FA7BBB791344C8
:1010B000DAB297F82030084611461A46FFF74AFE82
:1010C000BA7BFB791344D9B2FB7BBA79D31ADAB273
:1010D00097F82030084611461A46FFF73BFEFA7B88
:1010E000FB791344D9B2BB7BBA79D31ADAB297F839
:1010F0002030084611461A46FFF72CFEFB7BFA7992
:10110000D31AD9B2BB7BBA79D31ADAB297F82030A6
:10111000084611461A46FFF71DFEBB7BFA79D31A23
:10112000D9B2FB7BBA79D31ADAB297F820300846E5
:1011300011461A46FFF70EFE97F90D30002B0DDA17
:10114000FA7BD3B20133DBB2FB7353B25B000333E0
:10115000DAB27B7B1344DBB27B7313E0FA7BD3B24E
:101160000133DBB2FB7352B2B97BCBB2013BDBB2D2
:10117000BB734BB2D31A5B000533DAB27B7B1344EB
:10118000DBB27B7397F90F2097F90E309A427FF705
:10119000FBAE1037BD46B0BD90B587B002AF044678
:1011A000084611461A462346FB710346BB710B469F
:1011B0007B7113463B7197F82030002B35D0FA79BC
:1011C0007B799A4204D2FB79BB737B797B7303E012
:1011D0007B79BB73FB797B73BA793B799A4204D2F2
:1011E000BB793B733B79FB7203E03B793B73BB7983
:1011F000FB7215E03B7BFB730BE0B97BFA7B97F846
:101200002430084611461A46FFF7A4FDFB7B013344
:10121000FB73FA7BFB7A9A42EFD9BB7B0133BB733A
:10122000BA7B7B7B9A42E5D92FE0F879B9797A7954
:10123000BC7997F8243000932346FFF7EDFDF87949
:1012400039797A793C7997F8243000932346FFF76F
:10125000E3FDBB790133D9B23B79013BDCB2F879CC
:10126000FA7997F8243000932346FFF7D5FDBB7930
:101270000133D9B23B79013BDCB278797A7997F8BE
:10128000243000932346FFF7C7FD1437BD4690BDB9
:1012900080B586B000AF03463A60FB710B46BB7168
:1012A0003B681B787B743B685B783B743B7CDB085A
:1012B000DBB23A7C02F00702D2B2002A14BF01224C
:1012C0000022D2B21344FB73BB79DB08DBB2BA79DC
:1012D00002F00702D2B2002A14BF01220022D2B2C9
:1012E0001344BB7302237B610023FB744FE0FB7C40
:1012F000082B49D8294AFB791370BA7BFB7C13442D
:10130000DAB2274B1A70BA7BFB7C1344DBB2DBB238
:1013100003F00F03DBB263F04F03DBB2DBB200205C
:101320001946FFF759FBFB7903F00F03DBB20020EE
:101330001946FFF751FBFB791B09DBB2DBB203F067
:101340000703DBB243F01003DBB2DBB20020194627
:10135000FFF742FB0023BB7412E0FA79BB7C134415
:101360005F2B07DC7B693A6813441B780120194620
:10137000FFF732FB7B6901337B61BB7C0133BB74BC
:10138000BA7C7B7C9A42E8D3FB7C0133FB74FA7C09
:10139000FB7B9A42ABD31837BD4680BDD3070020F4
:1013A000D40700200000000080B582B000AF786054
:1013B000786804F0DFFD02460B46104619460AA382
:1013C000D3E9002304F04CFE02460B4610461946B2
:1013D00007A3D3E9002304F06DFF02460B46104635
:1013E00019460837BD4680BD7993DFA293A5663FB5
:1013F000000000000088B340B0B582B000AF786054
:101400003960786804F0B6FD02460B46104619466E
:101410000DA3D3E9002304F023FE02460B46144635
:101420001D46386804F0A6FD02460B4620462946B4
:1014300004F040FF02460B46104619460837BD46E9
:10144000B0BD00BFAFF30080008C88DEB962843F7E
:1014500080B584B000AF78607B68134AA2FB032399
:101460001B0BFB60FB68C3F520630A33184604F0CE
:1014700091FD02460B461046194609A3D3E9002305
:1014800004F0EEFD02460B464FF00000074904F061
:1014900033FC02460B46104619461037BD4680BD48
:1014A00096438B6CE7FBC93F5917B7D10000424008
:1014B00080B400AF0C4B00221A600B4B00225A6024
:1014C0000A4B00221A60094B00225A60084B002286
:1014D0001A60084B00221A60074B00221A60BD46B2
:1014E0005DF8047B704700BFDC070020480800203F
:1014F000E4070020240800202008002080B582B0E6
:1015000000AF44484FF4906101F062F84148012176
:1015100000F088FE3F48142100F084FF03467B6002
:101520007B6840F2E35293420BDD3B4B1A687B68C9
:101530001344394A1360384B5B680133364A5360B1
:101540000AE0364B1A687B681344344A1360334B05
:101550005B680133314A53602E481C2100F062FF62
:1015600003463B602B481C2100F05CFF03461A46F3
:101570002B4B1B6813442A4A13602648182100F09D
:1015800051FF03461A46274B1B681344254A136034
:10159000254B1B680133244A1360234B1B6841F21F
:1015A0008832934233DD1D4B1A681C4B5B68104632
:1015B0001946FFF721FF02460B461C49C1E90023EB
:1015C000154B1A68144B5B6810461946FFF714FF59
:1015D00002460B461649C1E90023114B1B68184609
:1015E000FFF7E2FE02460B461249C1E900230D4B0C
:1015F0001B681846FFF72CFF02460B460E49C1E94F
:101600000023FFF755FF00F019F803F02BFF083710
:10161000BD4680BD0024014048080020DC070020B2
:10162000E4070020240800202008002018080020DB
:1016300010080020500800204008002080B500AFAE
:101640000D4BD3E900231046194609A3D3E9002323
:1016500004F096FF0346002B08D0084B0022A3F8A5
:101660004020074B93E8070003F0B0FE80BD00BFA9
:101670009A9999999999C93F50080020000800400B
:101680003408002080B588B000AF4D494FF000020B
:101690004FF00003C1E900234A494FF000024FF028
:1016A0000003C1E9002348494FF000024FF0000356
:1016B000C1E9002345494FF000024FF00003C1E9A2
:1016C0000023434B00221A60FFF7F2FE414800F06E
:1016D00077FA4FF4404001F049F94FF400700121CE
:1016E00001F07EFA0723BB830023FB770223BB773D
:1016F00007F11C0338481946FEF744FE0023BB607F
:1017000001233B7300237B734FF460233B61002371
:101710007B6103233B7607F108032E48194600F04E
:1017200089FA2C48032100F041FE2A4800210122B9
:10173000032300F0ABFD274802210322032300F01E
:10174000A5FD244801210222032300F09FFD21482A
:101750004FF4E04100F030FD1E48012100F0D8FABE
:101760001C4800F02FFB00E000BF1A4800F03AFBD5
:101770000346002BF8D112233B7101237B71002318
:10178000BB710123FB713B1D184604F097F811480B
:101790004FF49061012200F0F3FA0E4800F03AFB9A
:1017A00000E000BF0B4800F045FB0346002BF8D1DA
:1017B0000848012100F036FD2037BD4680BD00BF3E
:1017C00018080020100800205008002040080020C1
:1017D000200800200024014000080140AFF30080F1
:1017E00080B483B000AF0346FB71084997F9073016
:1017F0005B09FA7902F01F02012000FA02F241F8B7
:1018000023200C37BD465DF8047B704700E100E003
:1018100080B483B000AF0346FB71094997F90730E4
:101820005B09FA7902F01F02012000FA02F220336C
:1018300041F823200C37BD465DF8047B704700BF9C
:1018400000E100E080B500AF1148012103F016FB74
:101850000346002B1BD00E48012103F039FB0D4B32
:101860001B78DBB2002B02D10B4B01221A70094B03
:1018700000221A70064B1B889BB203F01003002B4A
:101880000CBF01230023DBB21A46044B1A7080BD43
:10189000002C014072080020700800207108002010
:1018A00080B586B000AF254B01221A70244B002270
:1018B0001A7007F114031846FEF724FE4823FB753F
:1018C0004FF4E063BB8207F114031E481946FEF78C
:1018D00059FD4FF40060012101F082F907F108037E
:1018E000184602F045FA0423BB8110237B8107F1DF
:1018F00008031548194601F0E5FE134803210222AA
:10190000022302F071FC19233B7103237B71002336
:10191000BB710123FB713B1D184603F0CFFF19205B
:10192000FFF75EFF08480121012202F0D9FA0648BC
:10193000012102F08FFA1837BD4680BD72080020E1
:101940007008002000080140002C014080B582B0E2
:1019500000AF1920FFF75CFF064B00221A70064B00
:101960001B78FB711920FFF73BFFFB7918460837FE
:10197000BD4680BD700800207108002080B500AF12
:1019800006484FF48061FEF7D1FD0346002B0CBFE3
:1019900001230023DBB2184680BD00BF00080140D0
:1019A00080B500AF164A164B1B6843F00103136065
:1019B0001349134B5A68134B13404B60104A104B9A
:1019C0001B6823F0847323F4803313600C4A0C4BA0
:1019D0001B6823F480231360094A094B5B6823F4D6
:1019E000FE035360064B4FF41F029A60044B002223
:1019F000DA6200F075F8044B4FF000629A6080BD27
:101A0000001002400000FFF800ED00E080B485B057
:101A100000AF0023FB600023BB6000237B6000233A
:101A20003B602A4B5B6803F00C03FB60FB68042BF4
:101A300007D0082B09D0002B2FD1254B254A1A603F
:101A40002FE0234B234A1A602BE0204B5B6803F402
:101A50007013BB601D4B5B6803F480337B60BB6815
:101A60009B0C0233BB607B68002B06D1BB681A4A13
:101A700002FB03F3164A136013E0144BDB6A03F016
:101A80000F0301333B60134A3B68B2FBF3F3BA68C0
:101A900002FB03F30E4A136003E00D4B0D4A1A607C
:101AA00000BF0A4B5B6803F0F0031B090B4AD35CD1
:101AB000DBB2FB60064B1A68FB6822FA03F3044AA8
:101AC00013601437BD465DF8047B70470010024078
:101AD0000000002000127A0000093D0004000020F0
:101AE00080B500AF00F002F880BD00BF80B483B0C5
:101AF00000AF00237B6000233B60304A2F4B1B6804
:101B000043F4803313602D4B1B6803F400333B60B8
:101B10007B6801337B603B68002B03D17B68B3F5A6
:101B2000A06FF0D1254B1B6803F40033002B02D0CB
:101B300001233B6001E000233B603B68012B37D170
:101B40001E4A1E4B5B6853601C4A1C4B5B6853600B
:101B50001A4A1A4B5B685360184A184B5B6823F4A7
:101B60007C135360154A154B5B6843F4981353601C
:101B7000124A124B1B6843F08073136000BF0F4B77
:101B80001B6803F00073002BF9D00C4A0B4B5B6809
:101B900023F003035360094A084B5B6843F00203D8
:101BA000536000BF054B5B6803F00C03082BF9D1B1
:101BB0000C37BD465DF8047B704700BF0010024043
:101BC00080B582B000AF78607B68174A93420AD133
:101BD0004FF40070012101F03FF84FF40070002134
:101BE00001F03AF81CE07B68104A93420AD14FF4A6
:101BF0008060012101F030F84FF48060002101F095
:101C00002BF80DE07B680A4A934209D14FF400405B
:101C1000012101F021F84FF40040002101F01CF8EF
:101C20000837BD4680BD00BF0024014000280140A8
:101C3000003C014080B485B000AF7860396000237B
:101C4000FB600023FB727B685B68FB60FB6823F42E
:101C5000702323F48073FB603B681A683B681B7930
:101C60001B021343FA681343FB607B68FA685A60EF
:101C70007B689B68FB60FA68164B1340FB603B680F
:101C8000DA683B689B681A433B685B795B001343E7
:101C9000FA681343FB607B68FA689A607B68DB6ACA
:101CA000FB60FB6823F47003FB603B681B7C013B1B
:101CB000DAB2FB7A1343FB72FB7A1B05FA68134313
:101CC000FB607B68FA68DA621437BD465DF8047B16
:101CD000704700BFFDF7F1FF80B483B000AF7860BC
:101CE0007B6800221A607B6800221A717B680022E0
:101CF0005A717B6800229A607B680022DA607B68F8
:101D000001221A740C37BD465DF8047B704700BF92
:101D100080B483B000AF78600B46FB70FB78002B7B
:101D200006D07B689B6843F001027B689A6005E0FF
:101D30007B689B6823F001027B689A600C37BD4684
:101D40005DF8047B704700BF80B483B000AF78605B
:101D50000B46FB70FB78002B06D07B689B6843F436
:101D600080727B689A6005E07B689B6823F48072D0
:101D70007B689A600C37BD465DF8047B704700BFF6
:101D800080B485B000AF78600B467B8013467B70D3
:101D90000023FB737B88FB737B78002B06D07B686A
:101DA0005A68FB7B1A437B685A6006E07B685A6876
:101DB000FB7BDB431A407B685A601437BD465DF8F5
:101DC000047B704780B483B000AF78607B689B6809
:101DD00043F008027B689A600C37BD465DF8047BCF
:101DE000704700BF80B485B000AF78600023FB73FC
:101DF0007B689B6803F00803002B02D00123FB7370
:101E000001E00023FB73FB7B18461437BD465DF8E9
:101E1000047B704780B483B000AF78607B689B68B8
:101E200043F004027B689A600C37BD465DF8047B82
:101E3000704700BF80B485B000AF78600023FB73AB
:101E40007B689B6803F00403002B02D00123FB7323
:101E500001E00023FB73FB7B18461437BD465DF899
:101E6000047B704780B483B000AF78600B46FB7092
:101E7000FB78002B06D07B689B6843F4A0027B684C
:101E80009A6005E07B689B6823F4A0027B689A60F7
:101E90000C37BD465DF8047B704700BF80B485B049
:101EA00000AF78600023FB737B689B6803F48003BA
:101EB000002B02D00123FB7301E00023FB73FB7BAB
:101EC00018461437BD465DF8047B704780B485B072
:101ED00000AF78600B46FB700023FB600023BB6003
:101EE0007B685B68FB60FB6823F46043FB60FB7806
:101EF000013BBB60BB685B03FA681343FB607B6814
:101F0000FA685A601437BD465DF8047B704700BF1D
:101F100080B483B000AF78600B46FB70FB78002B79
:101F200006D07B685B6843F400627B685A6005E01A
:101F30007B685B6823F400627B685A600C37BD469F
:101F40005DF8047B704700BF80B485B000AF786057
:101F5000084611461A460346FB700B46BB701346F3
:101F60007B700023FB600023BB60FB78092B23D927
:101F70007B68DB68FB60FB78A3F10A0213465B0019
:101F80001344072202FA03F3BB60BB68DB43FA6821
:101F90001340FB607978FB78A3F10A0213465B00DB
:101FA000134401FA03F3BB60FA68BB681343FB6098
:101FB0007B68FA68DA601EE07B681B69FB60FA7870
:101FC00013465B001344072202FA03F3BB60BB68AD
:101FD000DB43FA681340FB607978FA7813465B00BC
:101FE000134401FA03F3BB60FA68BB681343FB6058
:101FF0007B68FA681A61BB78062B21D87B685B6B1B
:10200000FB60BB785A1E13469B0013441F2202FA42
:1020100003F3BB60BB68DB43FA681340FB60F978ED
:10202000BB785A1E13469B00134401FA03F3BB60AE
:10203000FA68BB681343FB607B68FA685A6347E041
:10204000BB780C2B21D87B681B6BFB60BB78DA1F3D
:1020500013469B0013441F2202FA03F3BB60BB68C4
:10206000DB43FA681340FB60F978BB78DA1F13464C
:102070009B00134401FA03F3BB60FA68BB68134387
:10208000FB607B68FA681A6322E07B68DB6AFB60AE
:10209000BB78A3F10D0213469B0013441F2202FAE2
:1020A00003F3BB60BB68DB43FA681340FB60F9785D
:1020B000BB78A3F10D0213469B00134401FA03F30E
:1020C000BB60FA68BB681343FB607B68FA68DA623E
:1020D0001437BD465DF8047B704700BF80B483B001
:1020E00000AF78600B46FB70FB78002B06D07B6856
:1020F0009B6843F480127B689A6005E07B689B686C
:1021000023F480127B689A600C37BD465DF8047B2F
:10211000704700BF80B483B000AF78607B68DB6C31
:102120009BB218460C37BD465DF8047B704700BF74
:1021300080B400AF034B1B681846BD465DF8047BB6
:10214000704700BF4C24014080B483B000AF78607A
:102150000B46FB70FB78002B06D07B685B6843F472
:1021600080627B685A6005E07B685B6823F480626C
:102170007B685A600C37BD465DF8047B704700BF32
:1021800080B483B000AF78600B46FB70FB78002B07
:1021900006D07B685B6843F480527B685A6005E038
:1021A0007B685B6823F480527B685A600C37BD46BD
:1021B0005DF8047B704700BF80B485B000AF7860E5
:1021C00039600023FB607B689B68FB60FB6823F43D
:1021D000E043FB60FA683B681343FB607B68FA6886
:1021E0009A601437BD465DF8047B704780B483B0B5
:1021F00000AF78600B46FB70FB78002B06D07B6845
:102200009B6843F400427B689A6005E07B689B68AA
:1022100023F400427B689A600C37BD465DF8047B6E
:10222000704700BF80B483B000AF78600B46FB708E
:10223000FB78002B06D07B689B6843F402127B6816
:102240009A6005E07B689B6823F402127B689A60C1
:102250000C37BD465DF8047B704700BF80B485B085
:1022600000AF78600023FB737B689B6803F4001366
:10227000002B02D00123FB7301E00023FB73FB7BE7
:1022800018461437BD465DF8047B704780B487B0AC
:1022900000AF7860084611461A460346FB700B46AD
:1022A000BB7013467B7000237B6100233B610023DE
:1022B000FB60FB78092B23D97B68DB687B61FB78AB
:1022C000A3F10A0213465B001344072202FA03F348
:1022D0003B613B69DB437A6913407B617978FB782A
:1022E000A3F10A0213465B00134401FA03F33B61B6
:1022F0007A693B6913437B617B687A69DA601EE027
:102300007B681B697B61FA7813465B0013440722E4
:1023100002FA03F33B613B69DB437A6913407B615B
:102320007978FA7813465B00134401FA03F33B61B2
:102330007A693B6913437B617B687A691A617B68C0
:102340009B6B7B617B6903F440131B0DFB60FB6897
:10235000DBB2BA78D31ADBB20233DBB21A461346C9
:102360009B0013441F2202FA03F33B613B69DB43EA
:102370007A6913407B61FA78FB68DBB2B978CB1AD3
:10238000DBB20233DBB219460B469B000B4402FA68
:1023900003F33B617A693B6913437B617B687A692C
:1023A0009A631C37BD465DF8047B704780B485B0E6
:1023B00000AF78600B46FB700023FB600023BB601E
:1023C0007B689B6BFB60FB6823F44013FB60FB782E
:1023D000013BBB60BB681B05FA681343FB607B686D
:1023E000FA689A631437BD465DF8047B704700BFF6
:1023F00080B485B000AF78600B46FB7013463B801D
:102400000023FB607B68FB60FA78FB681344FB6089
:10241000FB681A463B8813601437BD465DF8047BA1
:10242000704700BF80B485B000AF78600B46FB708A
:102430000023FB607B68FB60FA78FB681344283359
:10244000FB60FB681B689BB218461437BD465DF8FD
:10245000047B704780B485B000AF7860396000239A
:10246000FB607B685B68FB60FB6823F4400323F43C
:102470000073FB60FA683B681343FB607B68FA6893
:102480005A601437BD465DF8047B704780B483B052
:1024900000AF78600B467B8013463B807A887B6870
:1024A0005A623A887B689A620C37BD465DF8047BB5
:1024B000704700BF80B485B000AF78600B46FB70FA
:1024C0000023FB607B685B68FB60FB6823F01F03F5
:1024D000FB60FB78FA681343FB607B68FA685A601C
:1024E0001437BD465DF8047B704700BF80B483B0ED
:1024F00000AF0346FB71FB79002B06D0084A084B5E
:102500009B6843F40003936005E0054A044B9B6815
:1025100023F4000393600C37BD465DF8047B7047DD
:102520000024014080B485B000AF78600B46FB709A
:102530000023FB737B681A68FB781340002B02D0E2
:102540000123FB7301E00023FB73FB7B1846143768
:10255000BD465DF8047B704780B483B000AF7860FF
:102560000B46FB70FB78DA437B681A600C37BD467C
:102570005DF8047B704700BF80B487B000AF78601F
:102580000B467B800023FB7500233B610023FB602F
:102590007B881B0A9BB23B617B685B687A88D2B2FE
:1025A0001340FB607B681A683B691340002B05D021
:1025B000FB68002B02D00123FB7501E00023FB75B3
:1025C000FB7D18461C37BD465DF8047B704700BF95
:1025D00080B485B000AF78600B467B800023FB732E
:1025E0007B881B0A9BB2FB73FB7BDA437B681A6018
:1025F0001437BD465DF8047B704700BF80B400AF60
:10260000154A154B1B6843F0010313601249124B26
:102610005A68124B13404B600F4A0F4B1B6823F054
:10262000847323F4803313600B4A0B4B1B6823F431
:1026300080231360084A084B5B6823F4FE03536051
:10264000054B4FF41F029A60034B0022DA62BD462D
:102650005DF8047B704700BF001002400000FFF8E7
:1026600080B483B000AF7860134A134B1B6823F427
:1026700080331360104A104B1B6823F480231360CF
:102680007B68B3F5803F03D0B3F5802F07D00DE012
:10269000094A094B1B6843F48033136006E0064A7D
:1026A000054B1B6843F4A023136000BF0C37BD46E5
:1026B0005DF8047B704700BF0010024080B582B017
:1026C00000AF00233B600023FB710023BB7131206E
:1026D00000F02EFB0346BB713B6801333B603B6857
:1026E000B3F5A06F02D0BB79002BF0D0312000F001
:1026F0001FFB0346002B02D00123FB7101E00023E6
:10270000FB71FB7918460837BD4680BD80B485B0A3
:1027100000AF0346FB710023FB600A4B1B68FB60A4
:10272000FB6823F0F803FB60FB79DB00FA681343D6
:10273000FB60044AFB6813601437BD465DF8047BF8
:10274000704700BF0010024080B483B000AF034662
:10275000FB71044AFB7913600C37BD465DF8047BBE
:10276000704700BF0000424280B485B000AF78607F
:1027700039600023FB600A4B5B68FB60FB6823F455
:102780007413FB607A683B681343FA681343FB6079
:10279000034AFB6853601437BD465DF8047B7047FD
:1027A0000010024080B483B000AF0346FB71044ABE
:1027B000FB7913600C37BD465DF8047B704700BFA2
:1027C0006000424280B485B000AF78603960002379
:1027D000FB600B4BDB6AFB60FB6823F4803323F068
:1027E0000F03FB607A683B681343FA681343FB608E
:1027F000034AFB68D3621437BD465DF8047B70471B
:102800000010024080B485B000AF78600023FB6008
:10281000094B5B68FB60FB6823F00303FB60FA680D
:102820007B681343FB60044AFB6853601437BD4662
:102830005DF8047B704700BF0010024080B400AF19
:10284000054B5B68DBB203F00C03DBB21846BD46F8
:102850005DF8047B704700BF0010024080B485B073
:1028600000AF78600023FB60094B5B68FB60FB688E
:1028700023F0F003FB60FA687B681343FB60044AB3
:10288000FB6853601437BD465DF8047B704700BF9A
:102890000010024080B485B000AF78600023FB6078
:1028A000094B5B68FB60FB6823F4E063FB60FA683C
:1028B0007B681343FB60044AFB6853601437BD46D2
:1028C0005DF8047B704700BF0010024080B485B003
:1028D00000AF78600023FB60094B5B68FB60FB681E
:1028E00023F46053FB607B68DB00FA681343FB60F2
:1028F000034AFB6853601437BD465DF8047B70479C
:102900000010024080B483B000AF03460A46FB715A
:102910001346BB71BB79002B08D00C490B4B1B78BD
:10292000DAB2FB791343DBB20B7009E00749074BBE
:102930001B78DAB2FB79DB43DBB21340DBB20B70FE
:102940000C37BD465DF8047B704700BF091002409C
:1029500080B483B000AF7860034A7B6813600C37A3
:10296000BD465DF8047B7047D800424280B485B014
:1029700000AF78600023FB60094B5B68FB60FB687D
:1029800023F44043FB60FA687B681343FB60044A0E
:10299000FB6853601437BD465DF8047B704700BF89
:1029A0000010024080B483B000AF0346FB710C4BB3
:1029B00000221A700A4B00221A70FB79012B02D0F8
:1029C000042B04D007E0064B01221A7003E0044BED
:1029D00005221A7000BF0C37BD465DF8047B7047B6
:1029E0002010024080B483B000AF0346FB71044A5C
:1029F000FB7913600C37BD465DF8047B704700BF60
:102A00008004424280B483B000AF78600549054B32
:102A10001A6A7B6813430B620C37BD465DF8047B72
:102A2000704700BF0010024080B483B000AF03467F
:102A3000FB71044AFB7913600C37BD465DF8047BDB
:102A4000704700BF3C04424280B489B000AF786058
:102A50000023FB610023BB6100237B6100233B61FA
:102A60000023FB604A4B5B6803F00C03FB61FB69CE
:102A7000042B07D0082B09D0002B2FD17B68454AA7
:102A80001A602FE07B68434A1A602BE0404B5B687A
:102A900003F47013BB613E4B5B6803F480337B61CE
:102AA000BB699B0C0233BB617B69002B06D1BB6900
:102AB000394A02FB03F27B681A6013E0344BDB6A8D
:102AC00003F00F030133FB60324AFB68B2FBF3F300
:102AD000BA6902FB03F27B681A6003E07B682D4A47
:102AE0001A6000BF2A4B5B6803F0F003FB61FB69CF
:102AF0001B09FB61294AFB6913441B78DBB23B616C
:102B00007B681A683B69DA407B685A60204B5B68D7
:102B100003F4E063FB61FB691B0AFB611F4AFB696D
:102B200013441B78DBB23B617B685A683B69DA402F
:102B30007B689A60164B5B6803F46053FB61FB692A
:102B4000DB0AFB61154AFB6913441B78DBB23B616E
:102B50007B685A683B69DA407B68DA600C4B5B68DB
:102B600003F44043FB61FB699B0BFB610C4AFB696F
:102B700013441B78DBB23B617B68DA683B69B2FBCC
:102B8000F3F27B681A612437BD465DF8047B704719
:102B90000010024000127A0000093D0014000020DD
:102BA0002400002080B483B000AF78600B46FB7037
:102BB000FB78002B06D00949084B5A697B68134300
:102BC0004B6106E00549054B5A697B68DB431340BE
:102BD0004B610C37BD465DF8047B70470010024026
:102BE00080B483B000AF78600B46FB70FB78002B9D
:102BF00006D00949084B9A697B6813438B6106E04C
:102C00000549054B9A697B68DB4313408B610C37A0
:102C1000BD465DF8047B70470010024080B483B06D
:102C200000AF78600B46FB70FB78002B06D009499B
:102C3000084BDA697B681343CB6106E00549054B15
:102C4000DA697B68DB431340CB610C37BD465DF826
:102C5000047B70470010024080B483B000AF7860FE
:102C60000B46FB70FB78002B06D00949084BDA684D
:102C70007B681343CB6006E00549054BDA687B6847
:102C8000DB431340CB600C37BD465DF8047B7047D7
:102C90000010024080B483B000AF78600B46FB7038
:102CA000FB78002B06D00949084B1A697B6813434F
:102CB0000B6106E00549054B1A697B68DB4313404D
:102CC0000B610C37BD465DF8047B70470010024075
:102CD00080B483B000AF0346FB71044AFB791360F4
:102CE0000C37BD465DF8047B704700BF400442428C
:102CF00080B483B000AF0346FB71044AFB791360D4
:102D00000C37BD465DF8047B704700BF4C00424263
:102D100080B483B000AF0346FB71044AFB791370A3
:102D20000C37BD465DF8047B704700BF07100240BA
:102D300080B487B000AF0346FB710023FB60002323
:102D40007B610023FB74FB795B09DBB2FB60FB68F2
:102D5000012B03D1124B1B687B6109E0FB68022B3E
:102D600003D10F4B1B6A7B6102E00D4B5B6A7B61F9
:102D7000FB7903F01F03FB60FB687A6922FA03F317
:102D800003F00103002B02D00123FB7401E00023B8
:102D9000FB74FB7C18461C37BD465DF8047B70470E
:102DA0000010024080B400AF044A044B5B6A43F059
:102DB00080735362BD465DF8047B7047001002408B
:102DC00080B485B000AF0346FB710023FB73094B51
:102DD0009A68FB791340002B02D00123FB7301E0BA
:102DE0000023FB73FB7B18461437BD465DF8047B5C
:102DF000704700BF0010024080B483B000AF0346AC
:102E0000FB71044AFB7913700C37BD465DF8047BF7
:102E1000704700BF0A10024080B582B000AFFDF7D6
:102E2000ADFD00237B6011E07B6840F2023202FBC3
:102E300003F3094A1344002000211A46FEF728FA3A
:102E40000A2002F0C7FC7B6801337B607B68102B93
:102E5000EADD0837BD4680BD2C77000880B586B016
:102E600000AF0146C7E900230B46FB731B23BB756C
:102E70000823FB75FB7B022B01D12423FB75BA7D54
:102E8000FB7D10461946D7E9002300F003F81837F8
:102E9000BD4680BD80B58CB000AFF860B960C7E9B1
:102EA0000023D7E9000103F075FB034687F82F30B4
:102EB00097F82F30184603F06DF802460B46D7E915
:102EC000000102F019FF02460B46C7E9082397F8F4
:102ED0002F30092B7FD997F82F30184603F05AF876
:102EE00002460B461046194673A3D3E9002303F0AC
:102EF000B7F802460B46C7E90623D7E9060103F0F7
:102F000049FB0346DBB27B757B7D184603F042F834
:102F100002460B46D7E9060102F0EEFE02460B46DA
:102F2000104619464FF00002654B03F099F802462F
:102F30000B461046194603F02DFB0346DBB23B75EA
:102F4000D7E908014FF000025D4B03F089F8024613
:102F50000B461046194603F01DFB0346FB75FB6844
:102F6000D8B2BB68D9B27B7D1A46262303FB02F395
:102F7000544A13441A46FEF78BF9FB680C33FB6086
:102F8000FB68D8B2BB68D9B23B7D1A46262303FB47
:102F900002F34C4A13441A46FEF77AF9FB680C33E5
:102FA000FB60FB68DAB2BB68DBB210461946464AE2
:102FB000FEF76EF9FB680433FB60FB68D8B2BB68B0
:102FC000D9B2FB7D262202FB03F33E4A13441A4684
:102FD000FEF75EF96BE097F82F30BB75D7E9080173
:102FE0004FF00002364B03F03BF802460B46C7E9B0
:102FF0000823D7E9080103F0CDFA0346DBB27B745E
:103000007B7C184602F0C6FF02460B46D7E9080152
:1030100002F072FE02460B46104619464FF00002BF
:10302000274B03F01DF802460B461046194603F0E5
:10303000B1FA0346DBB23B74FB68D8B2BB68D9B2C5
:10304000BB7D262202FB03F31E4A13441A46FEF7F9
:103050001FF9FB680C33FB60FB68DAB2BB68DBB2BC
:1030600010461946184AFEF713F9FB680433FB6053
:10307000FB68D8B2BB68D9B27B7C1A46262303FB17
:1030800002F3104A13441A46FEF702F9FB680C33A8
:10309000FB60FB68D8B2BB68D9B23B7C1A462623DA
:1030A00003FB02F3074A13441A46FEF7F1F83037E0
:1030B000BD4680BDAFF300809A9999999999B93F1F
:1030C00000002440D86A0008C86A000880B58CB0A7
:1030D00000AFC7E90001D7E9000103F05BFA03463E
:1030E00087F82F3097F82F30184602F053FF02462A
:1030F0000B46D7E9000102F0FFFD02460B46C7E987
:1031000008230023FB7797F82F30092B70D997F805
:103110002F30184602F03EFF02460B461046194675
:1031200063A3D3E9002302F09BFF02460B46C7E9E5
:103130000423D7E9040103F02DFA0346DBB27B73C5
:103140007B7B184602F026FF02460B46D7E90401B6
:1031500002F0D2FD02460B46104619464FF000021F
:10316000554B02F07DFF02460B461046194603F010
:1031700011FA0346DBB23B73D7E908014FF00002B6
:103180004D4B02F06DFF02460B461046194603F008
:1031900001FA0346FB737B7B1A46922303FB02F37F
:1031A000464A1344FA7F104600211A46FEF770F88B
:1031B000FB7F1833FB773B7B1A46922303FB02F31A
:1031C0003E4A1344FA7F104600211A46FEF760F883
:1031D000FB7F1833FB77FB7B922202FB03F3374A1A
:1031E0001344FA7F104600211A46FEF751F85CE0BE
:1031F00097F82F30BB73D7E908014FF000022E4B30
:1032000002F02EFF02460B46C7E90823D7E9080162
:1032100003F0C0F90346DBB27B727B7A184602F0FA
:10322000B9FE02460B46D7E9080102F065FD0246E9
:103230000B46104619464FF000021F4B02F010FFDC
:1032400002460B461046194603F0A4F90346DBB2CA
:103250003B72BB7B922202FB03F3184A1344FA7FB2
:10326000104600211A46FEF713F8FB7F1833FB7750
:103270007B7A1A46922303FB02F3104A1344FA7F27
:10328000104600211A46FEF703F8FB7F1833FB7740
:103290003B7A1A46922303FB02F3084A1344FA7F4F
:1032A000104600211A46FDF7F3FF3037BD4680BDBA
:1032B0009A9999999999B93F00002440D0AC000897
:1032C00080B584B000AF78607B68FB7317E0FB7B50
:1032D0000633DBB2DB00DBB218463021224AFDF7B1
:1032E000D7FFFB7BC3F10503DBB2DB00DBB2184683
:1032F00030211E4AFDF7CCFFFB7B0133FB73FB7BC8
:10330000052BE4D90023FB7327E0FB7B0633DBB2FC
:10331000DB00D9B2FB7B5A1C1346DB0013445B0075
:10332000114A1344084630211A46FDF7B1FFFB7BD2
:10333000C3F10503DBB2DB00D9B2FB7B5A1C134699
:10334000DB0013445B00094A1344084630211A4647
:10335000FDF79EFFFB7B0133FB73FA7B7B689A4290
:10336000D3DB1037BD4680BDF0B2000884B2000840
:1033700080B500AF03200021044AFDF789FF4320F8
:103380000021034AFDF784FF80BD00BF046A0008E6
:10339000546C000880B500AF00200021014AFDF701
:1033A00077FF80BD2874000880B582B000AF034667
:1033B000FB71FB79C22202FB03F3054A13444B2045
:1033C00000211A46FDF764FF0837BD4680BD00BFE7
:1033D000986C000880B584B000AF78600123FB6072
:1033E00011E0FB68DBB2DB00D9B2FB682A2202FBEA
:1033F00003F3124A1344084618211A46FDF748FF02
:10340000FB680133FB60FA687B689A42E9DD7B6800
:103410000133FB600BE0FB68DBB2DB00DBB218467C
:103420001821064AFDF734FFFB680133FB60FB6897
:103430000A2BF0DD1037BD4680BD00BF00AB000891
:1034400080B500AFFDF79AFA00200021044AFDF78D
:103450001FFF44200021034AFDF71AFF80BD00BF73
:1034600050AA0008A8AA000880B582B000AFC7E93A
:1034700000011C200021D7E90023FFF70BFD0837CE
:10348000BD4680BD80B500AF01200121014AFDF796
:10349000FFFE80BDFC69000880B582B000AF786097
:1034A0007B68784A93420AD14FF400600121FFF70C
:1034B000D3FB4FF400600021FFF7CEFBDEE07B681A
:1034C000B3F1804F08D101200121FFF7E3FB012078
:1034D0000021FFF7DFFBD1E07B686B4A934208D104
:1034E00002200121FFF7D6FB02200021FFF7D2FBCB
:1034F000C4E07B68654A934208D104200121FFF7AC
:10350000C9FB04200021FFF7C5FBB7E07B68604AD8
:10351000934208D108200121FFF7BCFB08200021BD
:10352000FFF7B8FBAAE07B685A4A934208D1102003
:103530000121FFF7AFFB10200021FFF7ABFB9DE05F
:103540007B68554A934208D120200121FFF7A2FB56
:1035500020200021FFF79EFB90E07B684F4A9342BA
:103560000AD14FF400500121FFF776FB4FF40050D1
:103570000021FFF771FB81E07B68494A93420AD141
:103580004FF400200121FFF767FB4FF400200021DA
:10359000FFF762FB72E07B68424A93420AD14FF424
:1035A00080100121FFF758FB4FF480100021FFF736
:1035B00053FB63E07B683C4A93420AD14FF400100E
:1035C0000121FFF749FB4FF400100021FFF744FBF6
:1035D00054E07B68354A934208D140200121FFF72F
:1035E00059FB40200021FFF755FB47E07B68304A3C
:1035F000934208D180200121FFF74CFB802000215D
:10360000FFF748FB3AE07B682A4A93420AD14FF41D
:1036100080700121FFF73EFB4FF480700021FFF71F
:1036200039FB2BE07B68244A93420AD14FF4803067
:103630000121FFF711FB4FF480300021FFF70CFB55
:103640001CE07B681D4A93420AD14FF400300121EF
:10365000FFF702FB4FF400300021FFF7FDFA0DE009
:103660007B68174A934209D14FF480200121FFF76C
:10367000F3FA4FF480200021FFF7EEFA0837BD4639
:1036800080BD00BF002C0140000400400008004045
:10369000000C0040001000400014004000340140C5
:1036A000004C01400050014000540140001800400F
:1036B000001C004000200040004001400044014048
:1036C0000048014080B485B000AF786039600023C5
:1036D000FB817B681B88FB817B682E4A934213D059
:1036E0007B682D4A93420FD07B68B3F1804F0BD09B
:1036F0007B682A4A934207D07B68294A934203D0C9
:103700007B68284A934208D1FB8923F07003FB8130
:103710003B685A88FB891343FB817B68224A9342AA
:103720000CD07B68214A934208D0FB8923F4407374
:10373000FB813B68DA88FB891343FB817B68FA894C
:103740001A803B689A887B689A853B681A887B68F0
:103750001A857B680F4A93420FD07B680E4A9342CA
:103760000BD07B68124A934207D07B68114A934280
:1037700003D07B68104A934204D13B681B7A9AB20B
:103780007B681A867B6801229A821437BD465DF8F1
:10379000047B7047002C01400034014000040040CD
:1037A00000080040000C00400010004000140040E1
:1037B00000400140004401400048014080B485B011
:1037C00000AF7860396000237B810023FB810023F8
:1037D000BB817B681B8C9BB223F001039AB27B6890
:1037E0001A847B681B8CFB817B689B88BB817B6810
:1037F0001B8B7B817B8923F070037B817B8923F08A
:1038000003037B813B681A887B8913437B81FB8997
:1038100023F00203FB813B681A89FB891343FB8178
:103820003B685A88FB891343FB817B68244A934297
:103830000FD07B68234A93420BD07B68224A934285
:1038400007D07B68214A934203D07B68204A934289
:1038500023D1FB8923F00803FB813B685A89FB894C
:103860001343FB81FB8923F00403FB813B689A88A7
:10387000FB891343FB81BB8923F48073BB81BB8924
:1038800023F40073BB813B689A89BB891343BB81D6
:103890003B68DA89BB891343BB817B68BA899A800C
:1038A0007B687A891A833B68DA887B689A867B68AA
:1038B000FA891A841437BD465DF8047B704700BF4F
:1038C000002C014000340140004001400044014010
:1038D0000048014080B485B000AF786039600023B3
:1038E0007B810023FB810023BB817B681B8C9BB207
:1038F00023F010039AB27B681A847B681B8CFB81CF
:103900007B689B88BB817B681B8B7B817B8923F4D5
:10391000E0437B817B8923F440737B813B681B8878
:103920001B029AB27B8913437B81FB8923F020031E
:10393000FB813B681B891B019AB2FB891343FB8106
:103940003B685B881B019AB2FB891343FB817B6850
:10395000224A934203D07B68214A93422BD1FB89B0
:1039600023F08003FB813B685B891B019AB2FB89D2
:103970001343FB81FB8923F04003FB813B689B8859
:103980001B019AB2FB891343FB81BB8923F480633B
:10399000BB81BB8923F40063BB813B689B899B008F
:1039A0009AB2BB891343BB813B68DB899B009AB207
:1039B000BB891343BB817B68BA899A807B687A890B
:1039C0001A833B68DA887B681A877B68FA891A84CD
:1039D0001437BD465DF8047B704700BF002C0140E2
:1039E0000034014080B485B000AF786039600023B6
:1039F0007B810023FB810023BB817B681B8C9BB2F6
:103A000023F480739AB27B681A847B681B8CFB81D9
:103A10007B689B88BB817B689B8B7B817B8923F048
:103A200070037B817B8923F003037B813B681A88C9
:103A30007B8913437B81FB8923F40073FB813B6803
:103A40001B891B029AB2FB891343FB813B685B888D
:103A50001B029AB2FB891343FB817B68224A934283
:103A600003D07B68214A93422BD1FB8923F4006366
:103A7000FB813B685B891B029AB2FB891343FB8184
:103A8000FB8923F48063FB813B689B881B029AB20D
:103A9000FB891343FB81BB8923F48053BB81BB8922
:103AA00023F40053BB813B689B891B019AB2BB89FD
:103AB0001343BB813B68DB891B019AB2BB8913436B
:103AC000BB817B68BA899A807B687A899A833B68D4
:103AD000DA887B689A877B68FA891A841437BD462E
:103AE0005DF8047B704700BF002C014000340140AA
:103AF00080B485B000AF786039600023BB810023BB
:103B00007B810023FB817B681B8C9BB223F4805359
:103B10009AB27B681A847B681B8C7B817B689B884C
:103B2000FB817B689B8BBB81BB8923F4E043BB811A
:103B3000BB8923F44073BB813B681B881B029AB28C
:103B4000BB891343BB817B8923F400537B813B6892
:103B50001B891B039AB27B8913437B813B685B887B
:103B60001B039AB27B8913437B817B68124A934281
:103B700003D07B68114A93420AD1FB8923F4804326
:103B8000FB813B689B899B019AB2FB891343FB81B4
:103B90007B68FA899A807B68BA899A833B68DA885D
:103BA0007B68A3F840207B687A891A841437BD4665
:103BB0005DF8047B704700BF002C014000340140D9
:103BC00080B582B000AF786039603B681B88002BFD
:103BD0000FD13B6859883B689A883B681B89786895
:103BE00001F086F93B68DB887868194601F036F801
:103BF00036E03B681B88042B0FD13B6859883B6833
:103C00009A883B681B89786801F0E2F93B68DB8899
:103C10007868194601F03EF822E03B681B88082BC3
:103C20000FD13B6859883B689A883B681B89786844
:103C300001F048FA3B68DB887868194601F048F8DB
:103C40000EE03B6859883B689A883B681B89786816
:103C500001F0AEFA3B68DB887868194601F054F849
:103C60000837BD4680BD00BF80B584B000AF786026
:103C700039600023FB810123BB813B685B88002BFB
:103C800002D10223FB8101E00023FB813B689B887A
:103C9000012B02D10223BB8101E00123BB813B68E0
:103CA0001B88002B1CD13B6859883B689A883B686D
:103CB0001B89786801F01CF93B68DB887868194635
:103CC00000F0CCFF3B681B89F989BA89786801F05C
:103CD0007FF93B68DB887868194600F0DBFF1BE062
:103CE0003B6859883B689A883B681B89786801F073
:103CF0006FF93B68DB887868194600F0CBFF3B68BA
:103D00001B89F989BA89786801F0F2F83B68DB8889
:103D10007868194600F0A2FF1037BD4680BD00BF8D
:103D200080B483B000AF786039603B681A883B6824
:103D30005B8813439AB23B689B8813439AB23B68F3
:103D4000DB8813439AB23B681B8913439AB23B68E2
:103D50005B8913439AB23B689B8913439AB27B6891
:103D6000A3F844200C37BD465DF8047B704700BFC4
:103D700080B483B000AF78607B684FF6FF729A80A2
:103D80007B6800221A807B680022DA807B68002230
:103D90005A807B6800221A720C37BD465DF8047B9E
:103DA000704700BF80B483B000AF78607B680022AA
:103DB0001A807B6800225A807B6800229A807B6888
:103DC0000022DA807B6800221A817B6800225A81F7
:103DD0007B6800229A817B680022DA810C37BD461D
:103DE0005DF8047B704700BF80B483B000AF78609B
:103DF0007B6800221A807B6800225A807B6801223F
:103E00009A807B680022DA807B6800221A810C3756
:103E1000BD465DF8047B704780B483B000AF786026
:103E20007B6800221A807B6800225A807B6800220F
:103E30009A807B680022DA807B6800221A817B6886
:103E400000225A817B6800229A810C37BD465DF8BA
:103E5000047B704780B483B000AF78600B46FB7082
:103E6000FB78002B08D07B681B889BB243F00103D2
:103E70009AB27B681A8007E07B681B889BB223F0AC
:103E800001039AB27B681A800C37BD465DF8047B4B
:103E9000704700BF80B483B000AF78600B46FB7002
:103EA000FB78002B0CD07B68B3F844309BB26FEAF0
:103EB00043436FEA53439AB27B68A3F8442009E076
:103EC0007B68B3F844309BB2C3F30E039AB27B68AD
:103ED000A3F844200C37BD465DF8047B704700BF53
:103EE00080B483B000AF78600B467B8013467B7054
:103EF0007B78002B08D07B689B899AB27B88134320
:103F00009AB27B689A8109E07B689B899AB27B8828
:103F1000DB439BB213409AB27B689A810C37BD4653
:103F20005DF8047B704700BF80B483B000AF786059
:103F30000B467B807B687A889A820C37BD465DF899
:103F4000047B704780B483B000AF78600B467B8001
:103F500013463B807A883B8813439AB27B68A3F868
:103F600048200C37BD465DF8047B704780B483B0B1
:103F700000AF78600B467B8013467B707B78002B0C
:103F800008D07B689B899AB27B8813439AB27B687E
:103F90009A8109E07B689B899AB27B88DB439BB25C
:103FA00013409AB27B689A810C37BD465DF8047B5A
:103FB000704700BF80B483B000AF78607B681B8916
:103FC0009BB223F007039AB27B681A810C37BD4677
:103FD0005DF8047B704700BF80B582B000AF7860A9
:103FE0000B467B807B887868194600F0E1F87B6897
:103FF0001B899BB243F007039AB27B681A8108378A
:10400000BD4680BD80B584B000AFF860084611465B
:104010001A4603467B810B463B811346FB807B8916
:10402000602B07D13A89FB88F8681146012200F01D
:10403000CFFF06E03A89FB88F8681146012200F0BC
:1040400057FF7B89F868194600F0B2F8FB681B89B6
:104050009BB243F007039AB2FB681A811037BD4642
:1040600080BD00BF80B586B000AFF860084611463D
:104070001A4603467B810B463B811346FB80002397
:10408000FB8279893A89FB88F86800F037F8FB6889
:104090001B89FB82FB8A23F00703FB82FB8A43F028
:1040A0000703FB82FB8A23F07003FB82FB8A43F049
:1040B0007003FB82FB68FA8A1A811837BD4680BDFF
:1040C00080B584B000AFF860084611461A46034632
:1040D0007B810B463B811346FB8079893A89FB88BB
:1040E000F86800F00BF8FB681B899BB243F480432F
:1040F0009AB2FB681A811037BD4680BD80B487B084
:1041000000AFF860084611461A4603467B810B460D
:104110003B811346FB800023FB82FB681B89FB82EB
:10412000FB8ADBB2FB82FB881B029AB23B891343FA
:104130009AB27B8913439AB2FB8A1343FB82FB68D2
:10414000FA8A1A811C37BD465DF8047B704700BFB0
:1041500080B483B000AF78600B467B8013463B8011
:104160007B687A881A857B683A889A820C37BD46C4
:104170005DF8047B704700BF80B485B000AF786005
:104180000B467B800023FB817B681B88FB81FB89BE
:1041900023F07003FB81FA897B881343FB817B68E2
:1041A000FA891A801437BD465DF8047B704700BF5A
:1041B00080B485B000AF78600B467B800023FB8124
:1041C0007B681B89FB81FB8923F07003FB81FA89E3
:1041D0007B881343FB817B68FA891A811437BD46BB
:1041E0005DF8047B704700BF80B487B000AFF86013
:1041F000084611461A4603467B810B463B8113460F
:10420000FB800023FB820023BB8200237B82FB68B0
:104210001B89FB82FB681B8BBB82FB681B8C7B8230
:10422000FB8A23F00703FB82FA8A7B891343FB8214
:10423000BB8A23F4407323F00303BB82BB8A43F49D
:10424000807343F00103BB827B8A23F022037B82CD
:10425000FB881B019AB23B8913439AB27B8A1343B2
:104260007B82FB68FA8A1A81FB68BA8A1A83FB6828
:104270007A8A1A841C37BD465DF8047B704700BFFC
:1042800080B485B000AF78600B467B800023FB8153
:104290007B681B8BFB81FB8923F07003FB81FA8910
:1042A0007B881343FB817B68FA891A831437BD46E8
:1042B0005DF8047B704700BF80B485B000AF7860C4
:1042C0000B467B800023FB817B681B8BFB81FB897A
:1042D00023F4E043FB817B881B029AB2FB891343E2
:1042E000FB817B68FA891A831437BD465DF8047B2D
:1042F000704700BF80B485B000AF78600B467B800C
:104300000023FB817B689B8BFB81FB8923F070037F
:10431000FB81FA897B881343FB817B68FA899A8346
:104320001437BD465DF8047B704700BF80B485B08C
:1043300000AF78600B467B800023FB817B689B8B02
:10434000FB81FB8923F4E043FB817B881B029AB24B
:10435000FB891343FB817B68FA899A831437BD4636
:104360005DF8047B704700BF80B483B000AF786015
:104370000B46FB70FB78002B08D07B681B889BB238
:1043800043F080039AB27B681A8007E07B681B8841
:104390009BB223F080039AB27B681A800C37BD462B
:1043A0005DF8047B704700BF80B483B000AF7860D5
:1043B0000B46FB70FB78002B08D07B689B889BB278
:1043C00043F004039AB27B689A8007E07B689B887D
:1043D0009BB223F004039AB27B689A800C37BD46E7
:1043E0005DF8047B704700BF80B483B000AF786095
:1043F0000B46FB70FB78002B08D07B689B889BB238
:1044000043F008039AB27B689A8007E07B689B8838
:104410009BB223F008039AB27B689A800C37BD46A2
:104420005DF8047B704700BF80B483B000AF786054
:104430000B46FB70FB78002B08D07B689B889BB2F7
:1044400043F001039AB27B689A8007E07B689B88FF
:104450009BB223F001039AB27B689A800C37BD4669
:104460005DF8047B704700BF80B485B000AF786012
:104470000B467B800023FB817B681B8BFB81FB89C8
:1044800023F00803FB81FA897B881343FB817B6857
:10449000FA891A831437BD465DF8047B704700BF64
:1044A00080B485B000AF78600B467B800023FB8131
:1044B0007B681B8BFB81FB8923F40063FB817B887A
:1044C0001B029AB2FB891343FB817B68FA891A832A
:1044D0001437BD465DF8047B704700BF80B485B0DB
:1044E00000AF78600B467B800023FB817B689B8B51
:1044F000FB81FB8923F00803FB81FA897B88134346
:10450000FB817B68FA899A831437BD465DF8047B8A
:10451000704700BF80B485B000AF78600B467B80E9
:104520000023FB817B689B8BFB81FB8923F4006369
:10453000FB817B881B029AB2FB891343FB817B685A
:10454000FA899A831437BD465DF8047B704700BF33
:1045500080B485B000AF78600B467B800023FB8180
:104560007B681B8BFB81FB8923F00403FB81FA89A9
:104570007B881343FB817B68FA891A831437BD4615
:104580005DF8047B704700BF80B485B000AF7860F1
:104590000B467B800023FB817B681B8BFB81FB89A7
:1045A00023F48063FB817B881B029AB2FB8913434F
:1045B000FB817B68FA891A831437BD465DF8047B5A
:1045C000704700BF80B485B000AF78600B467B8039
:1045D0000023FB817B689B8BFB81FB8923F0040319
:1045E000FB81FA897B881343FB817B68FA899A8374
:1045F0001437BD465DF8047B704700BF80B485B0BA
:1046000000AF78600B467B800023FB817B689B8B2F
:10461000FB81FB8923F48063FB817B881B029AB2B8
:10462000FB891343FB817B68FA899A831437BD4663
:104630005DF8047B704700BF80B485B000AF786040
:104640000B467B800023FB817B681B8BFB81FB89F6
:1046500023F08003FB81FA897B881343FB817B680D
:10466000FA891A831437BD465DF8047B704700BF92
:1046700080B485B000AF78600B467B800023FB815F
:104680007B681B8BFB81FB89C3F30E03FB817B885B
:104690001B029AB2FB891343FB817B68FA891A8358
:1046A0001437BD465DF8047B704700BF80B485B009
:1046B00000AF78600B467B800023FB817B689B8B7F
:1046C000FB81FB8923F08003FB81FA897B881343FC
:1046D000FB817B68FA899A831437BD465DF8047BB9
:1046E000704700BF80B485B000AF78600B467B8018
:1046F0000023FB817B689B8BFB81FB89C3F30E034B
:10470000FB817B881B029AB2FB891343FB817B6888
:10471000FA899A831437BD465DF8047B704700BF61
:1047200080B485B000AF78600B467B800023FB81AE
:104730007B681B8CFB81FB8923F00203FB81FA89D8
:104740007B881343FB817B68FA891A841437BD4642
:104750005DF8047B704700BF80B485B000AF78601F
:104760000B467B800023FB817B681B8CFB81FB89D4
:1047700023F00803FB81FA897B881343FB817B6864
:10478000FA891A841437BD465DF8047B704700BF70
:1047900080B485B000AF78600B467B800023FB813E
:1047A0007B681B8CFB81FB8923F02003FB817B88CA
:1047B0001B019AB2FB891343FB817B68FA891A8437
:1047C0001437BD465DF8047B704700BF80B485B0E8
:1047D00000AF78600B467B800023FB817B681B8CDD
:1047E000FB81FB8923F08003FB817B881B019AB24C
:1047F000FB891343FB817B68FA891A841437BD4611
:104800005DF8047B704700BF80B485B000AF78606E
:104810000B467B800023FB817B681B8CFB81FB8923
:1048200023F40073FB817B881B029AB2FB8913433C
:10483000FB817B68FA891A841437BD465DF8047BD6
:10484000704700BF80B485B000AF78600B467B80B6
:104850000023FB817B681B8CFB81FB8923F40063B5
:10486000FB817B881B029AB2FB891343FB817B6827
:10487000FA891A841437BD465DF8047B704700BF7F
:1048800080B485B000AF78600B467B800023FB814D
:104890007B681B8CFB81FB8923F40053FB817B88A5
:1048A0001B039AB2FB891343FB817B68FA891A8444
:1048B0001437BD465DF8047B704700BF80B485B0F7
:1048C00000AF78600B467B8013463B800023FB8162
:1048D0007B88012202FA03F3FB817B681B8C9AB26E
:1048E000FB89DB439BB213409AB27B681A847B68D6
:1048F0001B8C9AB239887B8801FA03F39BB213436D
:104900009AB27B681A841437BD465DF8047B704701
:1049100080B485B000AF78600B467B8013463B8047
:104920000023FB817B88042202FA03F3FB817B686E
:104930001B8C9AB2FB89DB439BB213409AB27B6813
:104940001A847B681B8C9AB239887B8801FA03F33E
:104950009BB213439AB27B681A841437BD465DF844
:10496000047B704780B485B000AF78600B467B80D5
:1049700013463B800023FB6000237B817B68FB6048
:10498000FB681833FB607B88012202FA03F37B810A
:104990007B681B8C9AB27B89DB439BB213409AB233
:1049A0007B681A847B88002B02D07B88082B13D16C
:1049B0007B885B089BB21A46FB681344FB60FB686C
:1049C000FA68126822F070021A60FB68FA681168CF
:1049D0003A880A431A6016E07B88043B9BB25B0866
:1049E0009BB21A46FB681344FB60FB68FA681268C6
:1049F00022F4E0421A60FB68FA68126839880902FA
:104A000089B20A431A601437BD465DF8047B7047CB
:104A100080B483B000AF78600B46FB70FB78002B4E
:104A200008D07B681B889BB243F002039AB27B6874
:104A30001A8007E07B681B889BB223F002039AB2BE
:104A40007B681A800C37BD465DF8047B704700BF59
:104A500080B483B000AF78600B467B807B88002BEE
:104A600008D07B681B889BB243F004039AB27B6832
:104A70001A8007E07B681B889BB223F004039AB27C
:104A80007B681A800C37BD465DF8047B704700BF19
:104A900080B483B000AF78600B46FB70FB78002BCE
:104AA00008D07B689B889BB243F080039AB27B68F6
:104AB0009A8007E07B689B889BB223F080039AB2C0
:104AC0007B689A800C37BD465DF8047B704700BF59
:104AD00080B483B000AF78600B467B807B681B8816
:104AE0009BB223F008039AB27B681A807B681B880C
:104AF0009AB27B8813439AB27B681A800C37BD4602
:104B00005DF8047B704700BF80B483B000AF78606D
:104B10000B467B807B689B889BB223F070039AB224
:104B20007B689A807B689B889AB27B8813439AB291
:104B30007B689A800C37BD465DF8047B704700BFE8
:104B400080B483B000AF78600B467B807B681B89A4
:104B50009BB223F007039AB27B681A817B681B899A
:104B60009AB27B8813439AB27B681A810C37BD4690
:104B70005DF8047B704700BF80B483B000AF7860FD
:104B80000B467B807B681B899BB223F080039AB223
:104B90007B681A817B681B899AB27B8813439AB21F
:104BA0007B681A810C37BD465DF8047B704700BFF7
:104BB00080B483B000AF78600B467B807B687A88D6
:104BC0009A840C37BD465DF8047B704780B483B08F
:104BD00000AF78600B467B807B687A889A850C37BB
:104BE000BD465DF8047B704780B483B000AF786049
:104BF0000B467B807B687A889A860C37BD465DF8C9
:104C0000047B704780B483B000AF78600B467B8034
:104C10007B687A881A870C37BD465DF8047B70473D
:104C200080B483B000AF78600B467B807B687A8865
:104C30009A870C37BD465DF8047B704780B483B01B
:104C400000AF78600B467B807B687A88A3F84020B1
:104C50000C37BD465DF8047B704700BF80B483B05D
:104C600000AF78600B467B807B681B8B9BB223F088
:104C70000C039AB27B681A837B681B8B9AB27B8881
:104C800013439AB27B681A830C37BD465DF8047BE8
:104C9000704700BF80B483B000AF78600B467B8064
:104CA0007B681B8B9BB223F440639AB27B681A83A8
:104CB0007B681B8B9AB27B881B029BB213439AB210
:104CC0007B681A830C37BD465DF8047B704700BFD4
:104CD00080B483B000AF78600B467B807B689B8B91
:104CE0009BB223F00C039AB27B689A837B689B8B00
:104CF0009AB27B8813439AB27B689A830C37BD467D
:104D00005DF8047B704700BF80B483B000AF78606B
:104D10000B467B807B689B8B9BB223F440639AB2EB
:104D20007B689A837B689B8B9AB27B881B029BB2C1
:104D300013439AB27B689A830C37BD465DF8047BB7
:104D4000704700BF80B483B000AF78600B467B80B3
:104D50007B681B889BB223F440739AB27B681A80ED
:104D60007B681B889AB27B8813439AB27B681A804F
:104D70000C37BD465DF8047B704700BF80B483B03C
:104D800000AF78607B689B8E9BB218460C37BD469F
:104D90005DF8047B704700BF80B483B000AF7860DB
:104DA0007B681B8F9BB218460C37BD465DF8047BB1
:104DB000704700BF80B483B000AF78607B689B8F82
:104DC0009BB218460C37BD465DF8047B704700BFA8
:104DD00080B483B000AF78607B68B3F840309BB29A
:104DE00018460C37BD465DF8047B704780B483B02D
:104DF00000AF78607B689B8C9BB218460C37BD4631
:104E00005DF8047B704700BF80B483B000AF78606A
:104E10007B681B8D9BB218460C37BD465DF8047B42
:104E2000704700BF80B485B000AF78600B467B80D0
:104E30000023FB737B681B8A9AB27B8813409BB26A
:104E4000002B02D00123FB7301E00023FB73FB7BEB
:104E500018461437BD465DF8047B704780B483B0B4
:104E600000AF78600B467B807B88DB439AB27B681F
:104E70001A820C37BD465DF8047B704780B485B05C
:104E800000AF78600B467B800023FB730023BB815F
:104E900000237B817B681B8A9AB27B881340BB818D
:104EA0007B689B899AB27B8813407B81BB89002BEE
:104EB00005D07B89002B02D00123FB7301E0002386
:104EC000FB73FB7B18461437BD465DF8047B7047C7
:104ED00080B483B000AF78600B467B807B88DB4377
:104EE0009AB27B681A820C37BD465DF8047B704726
:104EF00080B487B000AFF860084611461A460346F2
:104F00007B810B463B811346FB800023BB82002341
:104F1000FB82FB681B8C9BB223F001039AB2FB68F7
:104F20001A84FB681B8BBB82FB681B8CFB82BB8AD1
:104F300023F0F303BB82FB881B019AB23B89134326
:104F40009AB2BB8A1343BB82FB681C4A934213D0BC
:104F5000FB681B4A93420FD0FB68B3F1804F0BD024
:104F6000FB68184A934207D0FB68174A934203D064
:104F7000FB68164A93420BD1FB8A23F00203FB82A3
:104F80007A89FB8A13439BB243F00103FB820AE058
:104F9000FB8A23F00A03FB827A89FB8A13439BB2C4
:104FA00043F00103FB82FB68BA8A1A83FB68FA8A22
:104FB0001A841C37BD465DF8047B7047002C014005
:104FC000003401400004004000080040000C004094
:104FD00080B487B000AFF860084611461A46034611
:104FE0007B810B463B811346FB800023BB82002361
:104FF000FB8200237B82FB681B8C9BB223F0100397
:105000009AB2FB681A84FB681B8BBB82FB681B8C03
:10501000FB827B891B017B82BB8A23F440731B05C7
:105020001B0DBB82FB881B039AB2BB8A1343BB8256
:105030003B891B029AB2BB8A1343BB82FB681C4AA2
:10504000934213D0FB681B4A93420FD0FB68B3F125
:10505000804F0BD0FB68184A934207D0FB68174A71
:10506000934203D0FB68164A93420BD1FB8A23F08C
:105070002003FB827A8AFB8A13439BB243F010031E
:10508000FB820AE0FB8A23F0A003FB827A89FB8A79
:1050900013439BB243F01003FB82FB68BA8A1A8366
:1050A000FB68FA8A1A841C37BD465DF8047B70479A
:1050B000002C014000340140000400400008004082
:1050C000000C004080B487B000AFF860084611467D
:1050D0001A4603467B810B463B811346FB80002327
:1050E000BB820023FB8200237B82FB681B8C9BB26C
:1050F00023F480739AB2FB681A84FB689B8BBB8293
:10510000FB681B8CFB827B891B027B82BB8A23F0A2
:10511000F303BB82FB881B019AB23B8913439AB20B
:10512000BB8A1343BB82FB681C4A934213D0FB68C3
:105130001B4A93420FD0FB68B3F1804F0BD0FB6842
:10514000184A934207D0FB68174A934203D0FB6882
:10515000164A93420BD1FB8A23F40073FB827A8AAE
:10516000FB8A13439BB243F48073FB820AE0FB8A01
:1051700023F42063FB827A89FB8A13439BB243F4B6
:105180008073FB82FB68BA8A9A83FB68FA8A1A8466
:105190001C37BD465DF8047B704700BF002C014002
:1051A000003401400004004000080040000C0040B2
:1051B00080B487B000AFF860084611461A4603462F
:1051C0007B810B463B811346FB800023BB8200237F
:1051D000FB8200237B82FB681B8C9BB223F48053F1
:1051E0009AB2FB681A84FB689B8BBB82FB681B8CA2
:1051F000FB827B891B037B82BB8A23F440731B05E4
:105200001B0DBB823B891B029AB2BB8A1343BB8234
:10521000FB881B039AB2BB8A1343BB82FB681D4AFF
:10522000934213D0FB681C4A93420FD0FB68B3F142
:10523000804F0BD0FB68194A934207D0FB68184A8D
:10524000934203D0FB68174A93420BD1FB8A23F4A5
:105250000053FB827A8AFB8A13439BB243F4805348
:10526000FB820CE0FB8A23F400735B045B0CFB8283
:105270007A89FB8A13439BB243F48053FB82FB6819
:10528000BA8A9A83FB68FA8A1A841C37BD465DF88D
:10529000047B7047002C01400034014000040040B2
:1052A00000080040000C004080B586B000AF3B1DF8
:1052B00083E807007B6818460121FDF791FC102365
:1052C000FB750323BB75BB89BB82BA6807F1140366
:1052D00010461946FBF756F84FF44543BB8207F1D9
:1052E000140303481946FBF74DF81837BD4680BD37
:1052F0000010014080B500AF2C4B08221A602B4BE8
:105300002B4A5A60294B4FF480421A81294B0822BC
:105310001A60284B264A5A60264B4FF400421A81E5
:10532000254B10221A60244B244A5A60224B4022FB
:105330001A81234B10221A60214B204A5A60204BBD
:1053400080221A811F4B10221A601E4B1B4A5A6082
:105350001C4B4FF480721A811B4B10221A601A4B9F
:10536000164A5A60184B4FF400721A810F4B93E89B
:105370000700FFF799FF0F4B93E80700FFF794FF33
:105380000D4B93E80700FFF78FFF0D4B93E80700E5
:10539000FFF78AFF0B4B93E80700FFF785FF0A4BE7
:1053A00093E80700FFF780FF80BD00BFE8070020FB
:1053B000000C0140000800203408002000100140CB
:1053C00028080020F40700205808002080B584B089
:1053D00000AF3B1D83E80700BA68BB891046194639
:1053E000FBF7F4F81037BD4680BD00BF80B584B030
:1053F00000AF3B1D83E80700BA68BB891046194619
:10540000FBF7F2F81037BD4680BD00BF80B582B013
:1054100000AF08200121FDF7E3FB4023BB801023F0
:10542000FB710323BB713B1D03481946FAF7AAFF22
:105430000837BD4680BD00BF000C014080B500AFFD
:1054400002484021FBF7C2F880BD00BF000C0140BC
:1054500080B500AF02484021FBF7C6F880BD00BF11
:10546000000C014080B500AF0F4BD3E9002310467C
:1054700019464FF000020D4B01F078F80346002B5F
:1054800001D0FFF7DBFF084BD3E900231046194694
:105490004FF00002064B01F05FF80346002B01D0ED
:1054A000FFF7D6FF80BD00BF4008002000003E404F
:1054B00000003B4080B483B000AF0346FB71084955
:1054C00097F907305B09FA7902F01F02012000FA10
:1054D00002F241F823200C37BD465DF8047B70478B
:1054E00000E100E080B500AF064BD3E900230132B4
:1054F00043F100030349C1E9002303480121FFF7F9
:10550000E7FC80BD680800200014004080B586B02C
:1055100000AF4FF448737B6120200121FDF77EFB33
:1055200007F108031846FEF723FC7B699BB23B8119
:10553000154B1B687A694FF47A7101FB02F2B3FBD9
:10554000F2F39BB2BB8107F1080310481946FEF73E
:10555000B9F837233B7100237B710023BB71012312
:10556000FB713B1D184600F0A9F93720FFF7A2FF99
:10557000064801210122FEF7B3FC04480121FEF791
:1055800069FC1837BD4680BD0000002000140040B3
:1055900080B588B000AF30480121FBF7B1F84FF477
:1055A0008063BB831823FB770323BB7707F11C03BE
:1055B0002A481946FAF7E6FE0423BB831823FB7733
:1055C0000323BB7707F11C0325481946FAF7DAFED7
:1055D00001200121FDF722FB224B1B68224AA2FB7E
:1055E00003235B0B9BB23B826423BB820023FB82C1
:1055F00000237B8207F110034FF080401946FEF72D
:1056000061F860233B8001237B800023FB80002323
:105610003B813B464FF080401946FEF7E3F94FF0DF
:1056200080400821FEF720FF4FF080400821FEF760
:1056300037FF4FF080400821FEF750FF4FF08040C9
:105640000121FEF791FE4FF080400121FEF702FCA0
:105650002037BD4680BD00BF00031800000C01408C
:1056600000080140000000205917B7D180B588B06C
:1056700000AF02200121FDF7D1FA1823FB770323A5
:10568000BB774FF48063BB8307F11C0323481946A3
:10569000FAF778FE224B1B68224AA2FB03235B0B1E
:1056A0009BB23B826423BB820023FB8200237B826C
:1056B00007F110031C481946FEF704F860233B80ED
:1056C00001237B800023FB8000233B813B4616485F
:1056D0001946FEF773F83B4613481946FEF7FAF8E9
:1056E0003B4611481946FEF77DF93B460E481946E0
:1056F000FEF7FEF90C480821FEF7B6FE0A4808211D
:10570000FEF7CEFE08480121FEF72EFE06480121D5
:10571000FEF7A0FB2037BD4680BD00BF000C014056
:10572000000000205917B7D10004004080B588B0B0
:1057300000AF04200121FDF771FA4FF44073BB83E1
:105740001823FB770323BB7707F11C031D48194679
:10575000FAF718FE1C4B1B681C4AA2FB03235B0BC9
:105760009BB23B826423BB820023FB8200237B82AB
:1057700007F1100316481946FDF7A4FF60233B808C
:1057800001237B800023FB8000233B813B461048A4
:105790001946FEF7ADF90E480821FEF765FE0C48E4
:1057A0000821FEF77DFE0A480821FEF797FE08480B
:1057B0000121FEF7D9FD06480121FEF74BFB2037FA
:1057C000BD4680BD000C0140000000205917B7D134
:1057D0000008004080B485B000AF78607B68184650
:1057E0004FEAE0710B4BD3E90023121843EB01039E
:1057F000C7E9022300E000BF064BD3E90001D7E967
:105800000223994208BF9042F5D31437BD465DF894
:10581000047B70476808002080B483B000AF7860D4
:1058200039607A683B689A4201DB7B6800E03B683C
:1058300018460C37BD465DF8047B704780B485B0D0
:1058400000AFF860B9607A607B68013BFA68134486
:10585000FB60F9684B1EFB60B8680E4BA3FB00238E
:10586000DA0813469B0013445B00C21AD3B23033EC
:10587000DBB20B70BB68074AA2FB0323DB08BB60EB
:105880007B685A1E7A60002BE3D11437BD465DF861
:10589000047B7047CDCCCCCC80B483B000AF7860B3
:1058A000054A7B6843F0BF6343F40033D3600C3791
:1058B000BD465DF8047B704700ED00E080B487B022
:1058C00000AF786000237B6100233B610F23FB6006
:1058D0007B68DB78002B3AD0274BDB68DB4303F493
:1058E000E0631B0A7B617B69C3F104033B617B6955
:1058F000FA6822FA03F3FB607B685B781A463B691F
:1059000002FA03F37B617B689B781A46FB681340BD
:105910007A6913437B617B691B017B61174A7B6852
:105920001B787969C9B213440A4683F80023134AE5
:105930007B681B785B09DBB218467B681B7803F039
:105940001F03012101FA03F342F820300FE00B4955
:105950007B681B785B09DBB218467B681B7803F019
:105960001F0301229A4000F1200341F823201C3735
:10597000BD465DF8047B704700ED00E000E100E00B
:1059800080B483B000AF7860396007493B6823F08A
:10599000604323F07F037A6813438B600C37BD4666
:1059A0005DF8047B704700BF00ED00E080B483B079
:1059B00000AF03460A46FB711346BB71BB79002B4F
:1059C00006D00949084B1A69FB7913430B6106E0BD
:1059D0000549054B1A69FB79DB4313400B610C3712
:1059E000BD465DF8047B704700ED00E080B483B0F5
:1059F00000AF78607B68042B06D1094A084B1B680E
:105A000043F00403136005E0054A054B1B6823F0CF
:105A1000040313600C37BD465DF8047B704700BF7C
:105A200010E000E080B584B000AFFAF7A7FFFDF703
:105A300007FD4B4BD3E9002310461946FDF714FD33
:105A4000484BD3E90023C7E90223464BD3E900239F
:105A5000C7E9002362E0434BD3E90001D7E9002303
:105A6000821A61EB03034FF4FA704FF00001994280
:105A700008BF90420BD23A4BD3E900231046194697
:105A8000FDF7F2FC374BD3E90023C7E90023364B7F
:105A90001B78DBB2002B41D0324BD3E90023C7E99E
:105AA0000223FBF753FF0346002B14D12F4BB3F80F
:105AB00040309BB25F2B04D92C4B6422A3F84020CA
:105AC00022E02A4A294BB3F840309BB205339BB2FF
:105AD000A2F8403018E0FBF739FF0346012B13D141
