:020000040800F2
:1000000000200020513200089D3200089D32000877
:100010009D3200089D3200089D320008000000005B
:100020000000000000000000000000009D320008F9
:100030009D320008000000009D3200089D3200083B
:100040009D3200089D3200089D3200089D32000854
:100050009D3200089D3200089D3200089D32000844
:100060009D3200089D3200089D3200089D32000834
:100070009D3200089D3200089D3200089D32000824
:100080009D3200089D320008E117000800000000C2
:100090000000000000000000000000009D32000889
:1000A0009D320008050D00089D3200089D320008B1
:1000B0009D3200089D3200089D3200089D320008E4
:1000C0009D3200089D3200089D3200089D320008D4
:1000D0009D3200089D3200089D3200089D320008C4
:1000E0009D3200089D3200089D320008000000008B
:1000F0000000000000000000000000000000000000
:1001000000000000000000000000000000000000EF
:1001100000000000000000009D320008E90A00080D
:1001200000000000000000000000000000000000CF
:1001300000000000000000000000000000000000BF
:1001400000000000000000000000000000000000AF
:10015000000000000000000000000000000000009F
:10016000000000000000000000000000000000008F
:10017000000000000000000000000000000000007F
:10018000000000000000000000000000000000006F
:10019000000000000000000000000000000000005F
:1001A000000000000000000000000000000000004F
:1001B000000000000000000000000000000000003F
:1001C0000000000000000000000000005FF808F1DF
:1001D00081F0004102E000BF83F0004330B54FEAF8
:1001E00041044FEA430594EA050F08BF90EA020F65
:1001F0001FBF54EA000C55EA020C7FEA645C7FEAF8
:10020000655C00F0E2804FEA5454D4EB5555B8BF1A
:100210006D420CDD2C4480EA020281EA030382EA8B
:10022000000083EA010180EA020281EA0303362D1D
:1002300088BF30BD11F0004F4FEA01314FF4801CF0
:100240004CEA113102D0404261EB410113F0004F02
:100250004FEA03334CEA133302D0524263EB4303B9
:1002600094EA050F00F0A780A4F10104D5F1200E57
:100270000DDB02FA0EFC22FA05F2801841F10001B2
:1002800003FA0EF2801843FA05F359410EE0A5F186
:1002900020050EF1200E012A03FA0EFC28BF4CF0B7
:1002A000020C43FA05F3C01851EBE37101F000456D
:1002B00007D54FF0000EDCF1000C7EEB00006EEB7A
:1002C0000101B1F5801F1BD3B1F5001F0CD3490804
:1002D0005FEA30004FEA3C0C04F101044FEA44525B
:1002E00012F5800F80F09A80BCF1004F08BF5FEAE2
:1002F000500C50F1000041EB045141EA050130BDC2
:100300005FEA4C0C404141EB010111F4801FA4F164
:100310000104E9D191F0000F04BF01460020B1FAB9
:1003200081F308BF2033A3F10B03B3F120020CDAF1
:100330000C3208DD02F1140CC2F10C0201FA0CF0CF
:1003400021FA02F10CE002F11402D8BFC2F1200C34
:1003500001FA02F120FA0CFCDCBF41EA0C019040EA
:10036000E41AA2BF01EB0451294330BD6FEA040433
:100370001F3C1CDA0C340EDC04F11404C4F120021E
:1003800020FA04F001FA02F340EA030021FA04F330
:1003900045EA030130BDC4F10C04C4F1200220FA87
:1003A00002F001FA04F340EA0300294630BD21FAC5
:1003B00004F0294630BD94F0000F83F4801306BF8B
:1003C00081F480110134013D4EE77FEA645C18BF7F
:1003D0007FEA655C29D094EA050F08BF90EA020F16
:1003E00005D054EA000C04BF1946104630BD91EA0E
:1003F000030F1EBF0021002030BD5FEA545C05D111
:100400004000494128BF41F0004130BD14F580044F
:100410003CBF01F5801130BD01F0004545F0FE41C3
:1004200041F470014FF0000030BD7FEA645C1ABFF8
:10043000194610467FEA655C1CBF0B46024650EA2F
:10044000013406BF52EA033591EA030F41F400215B
:1004500030BD00BF90F0000F04BF0021704730B5E1
:100460004FF4806404F132044FF000054FF00001B6
:1004700050E700BF90F0000F04BF0021704730B577
:100480004FF4806404F1320410F0004548BF40424C
:100490004FF000013EE700BF42004FEAE2014FEAA1
:1004A00031014FEA02701FBF12F07F4393F07F4F7C
:1004B00081F06051704792F0000F14BF93F07F4FAE
:1004C000704730B54FF4607401F0004521F00041F1
:1004D00020E700BF50EA010208BF704730B54FF077
:1004E00000050AE050EA010208BF704730B511F07C
:1004F000004502D5404261EB41014FF4806404F1B4
:1005000032045FEA915C3FF4DCAE4FF003025FEA35
:10051000DC0C18BF03325FEADC0C18BF033202EBBD
:10052000DC02C2F1200300FA03FC20FA02F001FA17
:1005300003FE40EA0E0021FA02F11444C1E600BFB6
:1005400070B54FF0FF0C4CF4E06C1CEA11541DBF69
:100550001CEA135594EA0C0F95EA0C0F00F0DEF834
:100560002C4481EA030621EA4C5123EA4C5350EA19
:10057000013518BF52EA033541F4801143F480136A
:1005800038D0A0FB02CE4FF00005E1FB02E506F0FB
:100590000042E0FB03E54FF00006E1FB03569CF050
:1005A000000F18BF4EF0010EA4F1FF04B6F5007F56
:1005B00064F5407404D25FEA4E0E6D4146EB0606C8
:1005C00042EAC62141EA55514FEAC52040EA5E5051
:1005D0004FEACE2EB4F1FD0C88BFBCF5E06F1ED8FB
:1005E000BEF1004F08BF5FEA500E50F1000041EB32
:1005F000045170BD06F0004646EA010140EA0200DF
:1006000081EA0301B4EB5C04C2BFD4EB0C0541EA00
:10061000045170BD41F480114FF0000E013C00F315
:10062000AB8014F1360FDEBF002001F0004170BD39
:10063000C4F10004203C35DA0C341BDC04F1140452
:10064000C4F1200500FA05F320FA04F001FA05F2DE
:1006500040EA020001F0004221F0004110EBD370AB
:1006600021FA04F642EB06015EEA430E08BF20EAD7
:10067000D37070BDC4F10C04C4F1200500FA04F37A
:1006800020FA05F001FA04F240EA020001F000410C
:1006900010EBD37041F100015EEA430E08BF20EA7F
:1006A000D37070BDC4F1200500FA05F24EEA020EC7
:1006B00020FA04F301FA05F243EA020321FA04F0F6
:1006C00001F0004121FA04F220EA020000EBD370AD
:1006D0005EEA430E08BF20EAD37070BD94F0000FAD
:1006E0000FD101F00046400041EB010111F4801FE1
:1006F00008BF013CF7D041EA060195F0000F18BF92
:10070000704703F00046520043EB030313F4801FCD
:1007100008BF013DF7D043EA0603704794EA0C0F87
:100720000CEA135518BF95EA0C0F0CD050EA41069D
:1007300018BF52EA4306D1D181EA030101F000411A
:100740004FF0000070BD50EA410606BF1046194642
:1007500052EA430619D094EA0C0F02D150EA01364E
:1007600013D195EA0C0F05D152EA03361CBF10468F
:1007700019460AD181EA030101F0004141F0FE412E
:1007800041F470014FF0000070BD41F0FE4141F4B2
:10079000780170BD70B54FF0FF0C4CF4E06C1CEAB2
:1007A00011541DBF1CEA135594EA0C0F95EA0C0F67
:1007B00000F0A7F8A4EB050481EA030E52EA033522
:1007C0004FEA013100F088804FEA03334FF0805543
:1007D00045EA131343EA12634FEA022245EA111570
:1007E00045EA10654FEA00260EF000419D4208BF21
:1007F000964244F1FD0404F5407402D25B084FEACE
:100800003202B61A65EB03055B084FEA32024FF479
:1008100080104FF4002CB6EB020E75EB030E22BFD6
:10082000B61A754640EA0C005B084FEA3202B6EB96
:10083000020E75EB030E22BFB61A754640EA5C0045
:100840005B084FEA3202B6EB020E75EB030E22BFD5
:10085000B61A754640EA9C005B084FEA3202B6EBD6
:10086000020E75EB030E22BFB61A754640EADC0095
:1008700055EA060E18D04FEA051545EA16754FEAF7
:1008800006164FEAC30343EA52734FEAC2025FEA15
:100890001C1CC0D111F4801F0BD141EA00014FF0A4
:1008A00000004FF0004CB6E711F4801F04BF014375
:1008B0000020B4F1FD0C88BFBCF5E06F3FF6AFAE91
:1008C000B5EB030C04BFB6EB020C5FEA500C50F121
:1008D000000041EB045170BD0EF0004E4EEA1131A4
:1008E00014EB5C04C2BFD4EB0C0541EA045170BDAB
:1008F00041F480114FF0000E013C90E645EA060EEF
:100900008DE60CEA135594EA0C0F08BF95EA0C0F1C
:100910003FF43BAF94EA0C0F0AD150EA01347FF464
:1009200034AF95EA0C0F7FF425AF104619462CE73B
:1009300095EA0C0F06D152EA03353FF4FDAE10469E
:10094000194622E750EA410618BF52EA43067FF4EF
:10095000C5AE50EA41047FF40DAF52EA43057FF47F
:10096000EBAE12E74FF0FF3C06E000BF4FF0010C8A
:1009700002E000BF4FF0010C4DF804CD4FEA410CEE
:100980007FEA6C5C4FEA430C18BF7FEA6C5C1BD0BB
:1009900001B050EA410C0CBF52EA430C91EA030F3C
:1009A00002BF90EA020F0020704710F1000F91EA99
:1009B000030F58BF994208BF90422CBFD8176FEA67
:1009C000E37040F0010070474FEA410C7FEA6C5C35
:1009D00002D150EA013C07D14FEA430C7FEA6C5C3C
:1009E000D6D152EA033CD3D05DF8040B704700BF68
:1009F0008446104662468C461946634600E000BFB6
:100A000001B5FFF7B7FF002848BF10F1000F01BD87
:100A10004DF808EDFFF7F4FF0CBF012000205DF852
:100A200008FB00BF4DF808EDFFF7EAFF34BF0120D7
:100A300000205DF808FB00BF4DF808EDFFF7E0FF70
:100A400094BF012000205DF808FB00BF4DF808EDC1
:100A5000FFF7CEFF94BF012000205DF808FB00BF28
:100A60004DF808EDFFF7C4FF34BF012000205DF80A
:100A700008FB00BF4A0011D212F5001211D20DD5A9
:100A80006FF47873B3EB62520ED44FEAC12343F094
:100A9000004343EA505323FA02F070474FF000003E
:100AA000704750EA013002D14FF0FF3070474FF0ED
:100AB0000000704780B483B000AF0346FB71094B60
:100AC00097F907204FEA5212F97901F01F014FF010
:100AD000010000FA01F143F8221007F10C07BD46AE
:100AE00080BC704700E100E080B500AF0A484FF0DD
:100AF000010102F09BFB094BD3E900014FF0010219
:100B00004FF00003121843EB01030449C1E900232D
:100B100000F084FD80BD00BF001400408003002071
:100B200080B584B000AF4FF020004FF0010101F01C
:100B30006BFF07F10403184602F040FA4FF4166306
:100B4000BB804FF00A033B8107F1040313481946A9
:100B500001F09AFF4FF037033B704FF000037B70BA
:100B60004FF00003BB704FF00103FB703B4618468B
:100B700001F038FB4FF03700FFF79CFF07484FF0BC
:100B800001014FF0010202F057FA04484FF0010151
:100B900002F032FA07F11007BD4680BD0014004094
:100BA00080B588B000AF4FF002004FF0010101F0B6
:100BB0002BFF4FF0C003BB834FF01803FB774FF0C0
:100BC0000303BB7707F11C032E48194601F0D4FD3F
:100BD0004FF00303BB8307F11C032B48194601F0B8
:100BE000CBFD2A4B1A682A4BA3FB02134FEA53335F
:100BF0009BB23B824FF06403BB824FF00003FB8249
:100C00004FF000037B8207F110032248194601F0E0
:100C10003BFF4FF060033B804FF001037B804FF0C0
:100C20000003FB804FF000033B813B461948194607
:100C300001F0A8FF3B461748194602F031F83B4641
:100C40001448194602F0BEF83B461248194602F015
:100C500047F910484FF0080102F07CFA0D484FF0B8
:100C6000080102F093FA0B484FF0010102F052FA2A
:100C700008484FF0010102F0BFF907F12007BD4617
:100C800080BD00BF00080140000C014000000020B2
:100C90005917B7D10004004080B483B000AF0346B9
:100CA000FB71094B97F907204FEA5212F97901F0CD
:100CB0001F014FF0010000FA01F143F8221007F183
:100CC0000C07BD4680BC704700E100E080B483B0F3
:100CD00000AF0346FB710A4B97F907204FEA521207
:100CE000F97901F01F014FF0010000FA01F102F162
:100CF000200243F8221007F10C07BD4680BC704764
:100D000000E100E080B500AF13484FF0010102F0B0
:100D10005DFA0346002B1ED00F484FF0010102F090
:100D200085FA0E4B1B78DBB2002B03D10C4B4FF036
:100D300001021A70094B4FF000021A70064B1B8813
:100D40009BB203F01003002B14BF00230123DBB27E
:100D50001A46044B1A7080BD002C01408A03002003
:100D6000880300208903002080B586B000AF2F4B98
:100D70004FF001021A702E4B4FF000021A7007F16B
:100D80001403184601F0D0FD4FF04803FB754FF4F3
:100D9000E063BB8207F114032648194601F0ECFC1E
:100DA0004FF400604FF0010101F00EFE07F108035F
:100DB000184602F003F94FF00403BB814FF0100313
:100DC0007B8107F108031C48194601F05DFE1A48B3
:100DD0004FF003014FF002024FF0020302F050F90E
:100DE0004FF019033B714FF003037B714FF0000389
:100DF000BB714FF00103FB7107F10403184601F0CA
:100E0000F1F94FF01900FFF747FF0B484FF00101D0
:100E10004FF0010202F010F907484FF0010102F013
:100E2000EBF807F11807BD4680BD00BF8A0300201C
:100E30008803002000080140002C014080B582B0EA
:100E400000AF4FF01900FFF741FF084B4FF00002D1
:100E50001A70074B1B78FB714FF01900FFF71CFF4E
:100E6000FB79184607F10807BD4680BD88030020BE
:100E70008903002080B500AF06484FF4806101F07F
:100E800069FD0346002B14BF00230123DBB2184683
:100E900080BD00BF0008014080B582B000AF01F006
:100EA00035F84FF06F033B604FF000037B6015E0B7
:100EB0007B6840F2023202FB03F20C4BD3184FF076
:100EC00000004FF000011A4601F0F4F84FF00A005C
:100ED00000F082FB7B6803F101037B607B68102BD1
:100EE000E6DD07F10807BD4680BD00BF04400008ED
:100EF00080B586B000AF0146C7E900230B46FB73FF
:100F00004FF01B03BB754FF00803FB75FB7B022BF7
:100F100002D14FF02403FB75BA7DFB7D10461946C4
:100F2000D7E9002300F004F807F11807BD4680BD9B
:100F300080B58CB000AFF860B960C7E90023D7E98D
:100F40000001FFF797FD034687F82F3097F82F3001
:100F50001846FFF78FFA02460B46D7E90001FFF764
:100F60003BF902460B46C7E9082397F82F30092BB7
:100F700040F28A8097F82F301846FFF77BFA024636
:100F80000B46104619467EA3D3E90023FFF7D8FA93
:100F900002460B46C7E90623D7E90601FFF76AFDBB
:100FA0000346DBB27B757B7D1846FFF763FA02468A
:100FB0000B46D7E90601FFF70FF902460B4610462C
:100FC00019464FF00002704BFFF7BAFA02460B4683
:100FD00010461946FFF74EFD0346DBB23B75D7E9D5
:100FE00008014FF00002684BFFF7AAFA02460B46D1
:100FF00010461946FFF73EFD0346FB75FB68D9B264
:10100000BB68DAB27B7D4FF0260000FB03F05F4B3C
:10101000C318084611461A4601F04CF8FB6803F164
:101020000C03FB60FB68D9B2BB68DAB23B7D4FF0C2
:10103000260000FB03F0554BC318084611461A461C
:1010400001F038F8FB6803F10C03FB60FB68DAB2CF
:10105000BB68DBB2104619464D4A01F02BF8FB681D
:1010600003F10403FB60FB68D9B2BB68DAB2FB7D15
:101070004FF0260000FB03F0444BC318084611460E
:101080001A4601F017F875E097F82F30BB75D7E9CD
:1010900008014FF000023C4BFFF752FA02460B46A4
:1010A000C7E90823D7E90801FFF7E4FC0346DBB2F0
:1010B0007B747B7C1846FFF7DDF902460B46D7E9C7
:1010C0000801FFF789F802460B46104619464FF013
:1010D00000022D4BFFF734FA02460B461046194624
:1010E000FFF7C8FC0346DBB23B74FB68D9B2BB68B0
:1010F000DAB2BB7D4FF0260000FB03F0234BC31890
:10110000084611461A4600F0D5FFFB6803F10C03B0
:10111000FB60FB68DAB2BB68DBB2104619461C4ABA
:1011200000F0C8FFFB6803F10403FB60FB68D9B261
:10113000BB68DAB27B7C4FF0260000FB03F0134B58
:10114000C318084611461A4600F0B4FFFB6803F1C5
:101150000C03FB60FB68D9B2BB68DAB23B7C4FF092
:10116000260000FB03F0094BC318084611461A4637
:1011700000F0A0FF07F13007BD4680BDAFF300804F
:101180009A9999999999B93F00002440B43600087A
:10119000A4360008AFF3008080B58CB000AFC7E97B
:1011A0000001D7E90001FFF765FC034687F82F30FF
:1011B00097F82F301846FFF75DF902460B46D7E93E
:1011C0000001FFF709F802460B46C7E908234FF074
:1011D0000003FB7797F82F30092B76D997F82F303B
:1011E0001846FFF747F902460B46104619466AA310
:1011F000D3E90023FFF7A4F902460B46C7E904230D
:10120000D7E90401FFF736FC0346DBB27B737B7B37
:101210001846FFF72FF902460B46D7E90401FEF7FF
:10122000DBFF02460B46104619464FF000025C4BAE
:10123000FFF786F902460B4610461946FFF71AFCDF
:101240000346DBB23B73D7E908014FF00002544B71
:10125000FFF776F902460B4610461946FFF70AFCDF
:101260000346FB737B7B4FF0920202FB03F24D4B74
:10127000D318FA7F10464FF000011A4600F01AFF0B
:10128000FB7F03F11803FB773B7B4FF0920202FBDD
:1012900003F2444BD318FA7F10464FF000011A4670
:1012A00000F008FFFB7F03F11803FB77FB7B4FF097
:1012B000920202FB03F23B4BD318FA7F10464FF029
:1012C00000011A4600F0F6FE62E097F82F30BB737B
:1012D000D7E908014FF00002314BFFF731F9024620
:1012E0000B46C7E90823D7E90801FFF7C3FB03460C
:1012F000DBB27B727B7A1846FFF7BCF802460B46DE
:10130000D7E90801FEF768FF02460B46104619466A
:101310004FF00002224BFFF713F902460B4610462E
:101320001946FFF7A7FB0346DBB23B72BB7B4FF0CE
:10133000920202FB03F21B4BD318FA7F10464FF0C8
:1013400000011A4600F0B6FEFB7F03F11803FB779D
:101350007B7A4FF0920202FB03F2124BD318FA7F12
:1013600010464FF000011A4600F0A4FEFB7F03F187
:101370001803FB773B7A4FF0920202FB03F2094B12
:10138000D318FA7F10464FF000011A4600F092FE83
:1013900007F13007BD4680BD9A9999999999B93F4F
:1013A00000002440A875000880B584B000AF7860C4
:1013B0007B68FB731DE0FB7B03F10603DBB24FEAA6
:1013C000C303DBB218464FF030012B4A00F072FE27
:1013D000FB7BC3F10503DBB24FEAC303DBB2184664
:1013E0004FF03001254A00F065FEFB7B03F101035D
:1013F000FB73FB7B052BDED94FF00003BB7333E09F
:10140000BB7B03F10603DBB24FEAC303D9B2BB7B5C
:1014100003F1010213464FEAC3039B184FEA43034B
:10142000154A9B1808464FF030011A4600F042FE5C
:10143000BB7BC3F10503DBB24FEAC303D9B2BB7B6D
:1014400003F1010213464FEAC3039B184FEA43031B
:101450000A4A9B1808464FF030011A4600F02AFE4F
:10146000BB7B03F10103BB73BA7B7B689A42C7DB8A
:1014700007F11007BD4680BDC87B00085C7B0008F3
:1014800080B500AF4FF003004FF00001054A00F0B7
:1014900011FE4FF043004FF00001034A00F00AFE36
:1014A00080BD00BFE03500083038000880B500AFCF
:1014B0004FF000004FF00001014A00F0FBFD80BD3D
:1014C000003D000880B582B000AF0346FB71FB7998
:1014D0004FF0C20202FB03F2064BD3184FF04B0051
:1014E0004FF000011A4600F0E5FD07F10807BD4680
:1014F00080BD00BF7438000880B584B000AF78604C
:101500004FF00103FB6015E0FB68DBB24FEAC30359
:10151000DAB2FB684FF02A0101FB03F1154BCB183F
:1015200010464FF018011A4600F0C4FDFB6803F1A5
:101530000103FB60FA687B689A42E5DD7B6803F192
:101540000103BB600EE0BB68DBB24FEAC303DBB252
:1015500018464FF01801074A00F0ACFDBB6803F1D4
:101560000103BB60BB680A2BEDDD07F11007BD4628
:1015700080BD00BFD873000880B500AF00F0C6FC86
:101580004FF000004FF00001054A00F093FD4FF0CE
:1015900044004FF00001034A00F08CFD80BD00BF05
:1015A000287300088073000880B582B000AFC7E9D7
:1015B00000014FF01C004FF00001D7E90023FFF7B6
:1015C000B7FC07F10807BD4680BD00BF80B400AF7F
:1015D00000BFBD4680BC704780B584B000AF786066
:1015E00079680A464FEAE2730B49D1E90001121803
:1015F00043EB0103C7E9022301E0FFF7E7FF064BD6
:10160000D3E90001D7E90223994208BF9042F4D3FD
:1016100007F11007BD4680BD8003002080B500AFF4
:101620000C4B1B78002B12D10B4B4FF000029A870A
:10163000FFF73CFF00BF074B1B7883F00103DBB2D1
:10164000002BF8D100F062FCFFF71AFF00E000BFAA
:1016500080BD00BF790300200004004080B400AFCB
:1016600000BFBD4680BC704780B582B000AF7860D7
:101670007868FEF7EFFE02460B46104619460CA3AB
:10168000D3E90023FEF75CFF02460B4610461946DD
:1016900009A3D3E90023FFF77DF802460B46104665
:1016A000194607F10807BD4680BD00BFAFF30080B3
:1016B0007993DFA293A5663F000000000088B34045
:1016C000B0B582B000AF786039607868FEF7C2FECE
:1016D00002460B46104619460DA3D3E90023FEF738
:1016E0002FFF02460B4614461D463868FEF7B2FE31
:1016F00002460B4620462946FFF74CF802460B46A9
:101700001046194607F10807BD46B0BDAFF300808B
:10171000008C88DEB962843F80B584B000AF786009
:101720007A68174BA3FB02134FEA1333FB60FB6885
:10173000C3F56A7303F102031846FEF79BFE0246E7
:101740000B46104619460CA3D3E90023FEF7F8FE1A
:1017500002460B46104619464FF00002094BFEF7B1
:101760003DFD02460B461046194607F11007BD46DF
:1017700080BD00BFAFF3008096438B6CE7FBC93F91
:101780005917B7D10000424080B400AF0F4B4FF063
:1017900000021A600D4B4FF000025A600C4B4FF0E4
:1017A00000021A600A4B4FF000025A60094B4FF0DA
:1017B00000021A60084B4FF000021A60074B4FF00E
:1017C00000021A60BD4680BC704700BF9003002035
:1017D000C003002098030020B4030020B0030020C1
:1017E00080B582B000AF4E484FF4906100F0ACFF7E
:1017F0004B484FF0010100F0A9FE49484FF0140199
:1018000000F088FF03467B607B68B3F57A7F0CDDD0
:10181000444B1A687B68D218424B1A60414B5B6894
:1018200003F101023F4B5A600BE03F4B1A687B68A3
:10183000D2183D4B1A603C4B5B6803F101023A4BF6
:101840005A6037484FF0180100F064FF03461A460B
:10185000364B1B68D218354B1A6031484FF01C01CB
:1018600000F058FF03461A46314B1B68D218304B24
:101870001A60304B1B6803F101022E4B1A602D4B8E
:101880001A6841F288339A4245DD274B1A68264B85
:101890005B6810461946FFF713FF02460B462649C0
:1018A000C1E900231F4B1A681E4B5B68104619469E
:1018B000FFF706FF02460B462049C1E900231B4BF8
:1018C0001B681846FFF7D0FE02460B461C49C1E9CB
:1018D0000023174B1B681846FFF71EFF02460B46F6
:1018E0001849C1E90023FFF74FFF134BD3E9002349
:1018F000104619464FF00002134BFFF793F80346CA
:10190000002B04D0114B4FF000021A7003E00F4B74
:101910004FF001021A7007F10807BD4680BD00BFF5
:1019200000240140C0030020900300209803002001
:10193000B4030020B0030020A8030020A00300206F
:10194000C8030020B80300200000084079030020ED
:1019500080B588B000AF5C494FF000024FF0000343
:10196000C1E9002359494FF000024FF00003C1E9DB
:10197000002357494FF000024FF00003C1E9002354
:1019800054494FF000024FF00003C1E90023524BCD
:101990004FF000021A60FFF7F7FE504800F08AFC93
:1019A0004FF4404000F0F4FF4FF400704FF001019D
:1019B00001F00AF84FF00703BB834FF00003FB77F9
:1019C0004FF00203BB7707F11C034548194600F0AE
:1019D000D3FE4FF00003BB604FF001033B734FF0A9
:1019E00000037B734FF460233B614FF000037B6186
:1019F0004FF003033B7607F108033848194600F01F
:101A000099FC36484FF0030100F05EFE33484FF07A
:101A100000014FF001024FF0030300F0B3FD2F4827
:101A20004FF001014FF002024FF0030300F0AAFD56
:101A30002A484FF002014FF003024FF0030300F079
:101A4000A1FD26484FF4E04100F064FD23484FF02B
:101A5000010100F0C7FC214800F004FD01E0FFF7A0
:101A6000FDFD1E4800F00EFD0346002BF7D14FF0A0
:101A700012033B714FF001037B714FF00003BB7108
:101A80004FF00103FB7107F10403184600F0AAFBB5
:101A900012484FF490614FF0010200F0BFFC0F4874
:101AA00000F00CFD01E0FFF7D9FD0C4800F016FD39
:101AB0000346002BF7D109484FF0010100F046FD25
:101AC00007F12007BD4680BDA8030020A003002029
:101AD000C8030020B8030020B00300200024014008
:101AE0000008014080B400AF62B6BD4680BC7047BC
:101AF00080B400AF00BFBD4680BC704780B500AF6A
:101B00004FF004004FF0010100F05EFF4FF00800BD
:101B10004FF0010100F058FF80BD00BF80B584B0D8
:101B200000AF00F0F3F9FFF727FD4B4BD3E900239B
:101B300010461946FFF738FD484BD3E90023C7E9A3
:101B40000223464BD3E90023C7E900235FE0434B60
:101B5000D3E90001D7E90023821A61EB03034FF4B4
:101B6000FA704FF00001994208BF90420BD23A4BF5
:101B7000D3E9002310461946FFF716FD374BD3E98A
:101B80000023C7E90023364B1B78DBB2002B3ED085
:101B9000324BD3E90023C7E90223FFF74FF903468D
:101BA000002B12D12F4B9B8F9BB25F2B04D92D4B57
:101BB0004FF064029A871FE02A4B2A4A928F92B212
:101BC00002F1050292B29A8716E0FFF737F9034651
:101BD000012B11D1234B9B8F9BB2002B04D1214BA6
:101BE0004FF000029A8707E01E4B1E4A928F92B276
:101BF000A2F1050292B29A871B4B1A781B4BA3FBEA
:101C000002134FEAD303DBB21846FFF775FCFFF768
:101C100031F90346002B13D1104BD3E90001D7E96A
:101C20000223821A61EB030341F287304FF0000177
:101C3000994208BF90428AD202E0FFF759FF00E0C4
:101C400000BFFFF717F90346002BF6D100F05EF94D
:101C500007F11007BD4680BDC803002080030020A7
:101C6000880300200004004078030020CDCCCCCCB9
:101C700080B582B000AF01E0FFF73AFFFFF7FAF856
:101C80000346002BF8D100F041F9184BD3E90023AB
:101C900010461946FFF780FA4FF00003FB7111E080
:101CA000FB7903F10103FB71FB79052B02D94FF09E
:101CB0000003FB71FB791846FFF776FB4FF4FA70CF
:101CC000FFF78AFCFFF7D6F80346002BE8D001E0C7
:101CD000FFF70EFFFFF7CEF80346002BF8D100F018
:101CE00015F907F10807BD4680BD00BFC8030020F5
:101CF00080B500AF01F02EFBFFF7F4FEFEF710FFFA
:101D0000FFF7FCFE00F06CF8FEF74AFFFFF720FE3D
:101D1000FFF72AF8FFF738FDFFF7BEF84FF47A70A7
:101D2000FFF75AFC00F0F2F800E000BFFFF7A8FB55
:101D30001D4BD3E900234FF00100FFF7D9F81B4BEF
:101D4000D3E900234FF00200FFF7D2F8164BD3E996
:101D50000023104619464FF00002154BFEF7F0FB2A
:101D600002460B46104619464FF00002114BFEF793
:101D700011FD02460B4610461946FEF77BFE034650
:101D8000DBB21846FFF79EFB0B4B1B78DBB2002B38
:101D900001D0FFF7C3FEFFF76DF80346002BC4D058
:101DA000FFF766FFC1E700BFA8030020C8030020BB
:101DB0000000144000002E408803002080B483B04F
:101DC00000AF786003E07B6803F1FF337B607B68E2
:101DD000002BF8D107F10C07BD4680BC704700BF4F
:101DE00080B582B000AF4FF008004FF0010100F065
:101DF000EBFD4FF0F003BB804FF01003FB714FF091
:101E00000303BB7107F104033F48194600F0B4FC1B
:101E10003D4B3D4AD26822F02002DA603A4B3A4A02
:101E2000D26822F01002DA604FF01F00FFF7C6FF01
:101E3000354B354AD26842F01002DA604FF00000AC
:101E40004FF0E20100F0A0F84FF000004FF03A012F
:101E500000F09AF84FF000004FF0EF0100F094F816
:101E60004FF000004FF0040100F08EF84FF000003A
:101E70004FF0D00100F088F84FF000004FF0200143
:101E800000F082F84FF000004FF0900100F07CF875
:101E90004FF000004FF0A40100F076F84FF0000082
:101EA0004FF02F0100F070F84FF000004FF04001AC
:101EB00000F06AF84FF000004FF0B00100F064F855
:101EC0004FF000004FF0100100F05EF84FF00000FE
:101ED0004FF0000100F058F84FF000004FF0AC0157
:101EE00000F052F84FF000004FF0070100F04CF8FE
:101EF0004FF000004FF0AF0100F046F800F006F898
:101F000007F10807BD4680BD000C014080B582B0D6
:101F100000AF4FF000004FF0400100F035F84FF0F7
:101F200000004FF0B00100F02FF84FF000004FF02C
:101F3000100100F029F84FF000004FF0000100F010
:101F400023F80F4B4FF000021A700E4B4FF00002B7
:101F50001A704FF00003FB8009E04FF001004FF0D2
:101F6000000100F011F8FB8803F10103FB80FA88FF
:101F700040F25F339A42F0D907F10807BD4680BDB1
:101F8000700300207103002080B485B000AF0246CA
:101F90000B46FA71BB71434B424AD26822F02002D1
:101FA000DA60404B3F4AD26822F08002DA60FB7967
:101FB000002B33D03C4B1B781A463C4B1B78184601
:101FC0003B4913464FEAC3039B181B18CB18BA7939
:101FD0001A70354B1B7803F10103DAB2324B1A70D9
:101FE000314B1B785F2B0AD92F4B4FF000021A7030
:101FF0002E4B1B7803F10103DAB22C4B1A702B4BDA
:102000001B78082B03D9294B4FF000021A70254B7F
:10201000244AD26842F04002DA6005E0214B214AAE
:10202000D26822F04002DA601E4B1E4AD26842F0AB
:102030008002DA604FF00003FB7324E0194B194A69
:10204000D26822F08002DA60BB795BB2002B06DA3C
:10205000144B144AD26842F04002DA6005E0114B9A
:10206000104AD26822F04002DA600E4B0D4AD26864
:1020700042F08002DA60BB794FEA4303BB71FB7B1D
:1020800003F10103FB73FB7B072BD7D9054B054AF3
:10209000D26842F02002DA6007F11407BD4680BC26
:1020A000704700BF000C0140700300207103002046
:1020B0001800002080B586B000AF0B463A6002469B
:1020C000FA71BB713B681B787B743B685B783B742F
:1020D0003B7C4FEAD303DAB23B7C03F00703DBB26D
:1020E000002B0CBF00230123DBB2D318FB73BB7999
:1020F0004FEAD303DAB2BB7903F00703DBB2002B5C
:102100000CBF00230123DBB2D318BB734FF00203D3
:102110007B614FF00003FB7458E0FB7C082B51D827
:102120002E4BFA791A70BA7BFB7CD318DAB22C4B9F
:102130001A70BA7BFB7CD318DBB2DBB203F00F035F
:10214000DBB263F04F03DBB2DBB24FF000001946A5
:10215000FFF71AFFFB7903F00F03DBB24FF000002B
:102160001946FFF711FFFB794FEA1313DBB2DBB21D
:1021700003F00703DBB243F01003DBB2DBB24FF036
:1021800000001946FFF700FF4FF00003BB7415E095
:10219000FA79BB7CD3185F2B08DC7B693A68D318CB
:1021A0001B784FF001001946FFF7EEFE7B6903F143
:1021B00001037B61BB7C03F10103BB74BA7C7B7CB4
:1021C0009A42E5D3FB7C03F10103FB74FA7CFB7BB1
:1021D0009A42A2D307F11807BD4680BD70030020C4
:1021E0007103002080B487B000AF786000237B616A
:1021F00000233B610F23FB607B68DB78002B42D020
:102200004FF46D43CEF20003DB68DB4303F4E0637D
:102210001B0A7B617B69C3F104033B617B69FA683C
:1022200022FA03F3FB607B685B781A463B6902FA8B
:1022300003F37B617B689B781A46FB6813407A69DD
:1022400013437B617B691B017B614FF46143CEF2D9
:1022500000037A68127811467A69D2B20B4483F887
:1022600000234FF46143CEF200037A6812785209DA
:10227000D2B27968097801F01F01012000FA01F15A
:1022800043F8221011E04FF46143CEF200037A6864
:1022900012785209D2B27968097801F01F01012041
:1022A00000FA01F1203243F822101C37BD465DF8D8
:1022B000047B704780B582B000AF78607A681A4BB3
:1022C0009A420CD14FF400704FF0010100F0BCFBBA
:1022D0004FF400704FF0000100F0B6FB20E07A6888
:1022E000124B9A420CD14FF480604FF0010100F084
:1022F000ABFB4FF480604FF0000100F0A5FB0FE056
:102300007A680B4B9A420BD14FF400404FF0010119
:1023100000F09AFB4FF400404FF0000100F094FBF6
:1023200007F10807BD4680BD002401400028014098
:10233000003C014080B485B000AF786039604FF058
:102340000003FB604FF00003FB727B685B68FB607F
:10235000FB6823F4702323F48073FB603B681A68E6
:102360003B681B794FEA03231343FA681343FB606E
:102370007B68FA685A607B689B68FB60FA68184B58
:102380001340FB603B68DA683B689B681A433B6814
:102390005B794FEA43031343FA681343FB607B689E
:1023A000FA689A607B68DB6AFB60FB6823F4700361
:1023B000FB603B681B7C03F1FF33DAB2FB7A13430B
:1023C000FB72FB7A4FEA0353FA681343FB607B68A6
:1023D000FA68DA6207F11407BD4680BC704700BF97
:1023E000FDF7F1FF80B483B000AF78600B46FB705F
:1023F000FB78002B06D07B689B6843F001027B686A
:102400009A6005E07B689B6823F001027B689A6014
:1024100007F10C07BD4680BC704700BF80B485B093
:1024200000AF786013460A467A807B704FF0000355
:10243000FB737B88FB737B78002B06D07B685A6824
:10244000FB7B1A437B685A6007E07B685A68FB7B1A
:102450006FEA03031A407B685A6007F11407BD4610
:1024600080BC704780B483B000AF78607B689B68A5
:1024700043F008027B689A6007F10C07BD4680BCF8
:10248000704700BF80B485B000AF78604FF00003A4
:10249000FB737B689B6803F00803002B03D04FF0AD
:1024A0000103FB7302E04FF00003FB73FB7B184654
:1024B00007F11407BD4680BC704700BF80B483B0ED
:1024C00000AF78607B689B6843F004027B689A6089
:1024D00007F10C07BD4680BC704700BF80B485B0D3
:1024E00000AF78604FF00003FB737B689B6803F0DC
:1024F0000403002B03D04FF00103FB7302E04FF005
:102500000003FB73FB7B184607F11407BD4680BC34
:10251000704700BF80B485B000AF786039604FF07D
:102520000003FB607B689B68FB60FB6823F4E0436F
:10253000FB60FA683B681343FB607B68FA689A604B
:1025400007F11407BD4680BC704700BF80B483B05C
:1025500000AF78600B46FB70FB78002B06D07B68E1
:102560009B6843F402127B689A6005E07B689B6875
:1025700023F402127B689A6007F10C07BD4680BC09
:10258000704700BF80B487B000AF7860F970BA7050
:102590007B704FF000037B614FF000033B614FF015
:1025A0000003FB60FB78092B27D97B68DB687B6124
:1025B000FA7813464FEA43039B18A3F11E034FF02A
:1025C000070202FA03F33B613B696FEA03037A698E
:1025D00013407B617978FA7813464FEA43039B18DE
:1025E000A3F11E0301FA03F33B617A693B691343CC
:1025F0007B617B687A69DA6022E07B681B697B61BA
:10260000FA7813464FEA43039B184FF0070202FA89
:1026100003F33B613B696FEA03037A6913407B6113
:102620007978FA7813464FEA43039B1801FA03F3CB
:102630003B617A693B6913437B617B687A691A6104
:102640007B689B6B7B617B6903F440134FEA1353F8
:10265000FB60FB68DBB26FEA0303DAB2BB78D31826
:10266000DBB203F10303DBB21A4613464FEA8303DE
:102670009B184FF01F0202FA03F33B613B696FEABC
:1026800003037A6913407B61F978FB68DBB26FEA78
:102690000303DAB2BB78D318DBB203F10303DBB276
:1026A0001A4613464FEA83039B1801FA03F33B6172
:1026B0007A693B6913437B617B687A699A6307F1A6
:1026C0001C07BD4680BC704780B485B000AF786001
:1026D0000B46FB704FF00003FB604FF00003BB6044
:1026E0007B689B6BFB60FB6823F44013FB60FB780B
:1026F00003F1FF33BB60BB684FEA0353FA6813432F
:10270000FB607B68FA689A6307F11407BD4680BCDA
:10271000704700BF80B485B000AF78600B46FB7097
:102720004FF00003FB607B68FB60FA78FB68D3180E
:1027300003F12803FB60FB681B689BB2184607F196
:102740001407BD4680BC704780B485B000AF786088
:102750000B467B804FF00003FB737B884FEA13230B
:102760009BB2FB73FB7B6FEA03027B681A6007F185
:102770001407BD4680BC704780B489B000AF786054
:1027800039604FF00003FB614FF000033B614FF0F5
:102790000003BB614FF00003FB604FF000037B615F
:1027A0004FF00003BB603B68DB7803F00F03FB6175
:1027B0003B68DB7803F01003002B04D03B689B7868
:1027C000FA691343FB613B681B88DBB2002B4ED0D8
:1027D0007B681B687B614FF00003BB6141E0BB6914
:1027E0004FF0010202FA03F3FB603B681B881A46B4
:1027F000FB6813403B613A69FB689A422DD1BB6983
:102800004FEA8303FB60FB684FF00F0202FA03F309
:10281000BB60BB686FEA03037A6913407B61FB68A6
:10282000FA6902FA03F37A6913437B613B68DB7848
:10283000282B07D1BB694FF0010202FA03F27B6833
:102840005A610AE03B68DB78482B06D1BB694FF040
:10285000010202FA03F27B681A61BB6903F101030A
:10286000BB61BB69072BBAD97B687A691A603B6880
:102870001B88FF2B53D97B685B687B614FF000039B
:10288000BB6146E0BB6903F108034FF0010202FAA5
:1028900003F3FB603B681B881A46FB6813403B61EF
:1028A0003A69FB689A4230D1BB694FEA8303FB6007
:1028B000FB684FF00F0202FA03F3BB60BB686FEADC
:1028C00003037A6913407B61FB68FA6902FA03F338
:1028D0007A6913437B613B68DB78282B08D1BB699D
:1028E00003F108034FF0010202FA03F27B685A6118
:1028F0003B68DB78482B08D1BB6903F108034FF034
:10290000010202FA03F27B681A61BB6903F1010359
:10291000BB61BB69072BB5D97B687A695A6007F13F
:102920002407BD4680BC704780B483B000AF786098
:102930007B684FF6FF721A807B684FF002029A7034
:102940007B684FF00402DA7007F10C07BD4680BCCB
:10295000704700BF80B485B000AF78600B467B80C5
:102960004FF00003FB737B689A687B881340002B51
:1029700003D04FF00103FB7302E04FF00003FB7341
:10298000FB7B184607F11407BD4680BC704700BFAB
:1029900080B485B000AF78604FF00003FB60094B56
:1029A0005B68FB60FB6823F44043FB60FA687B686C
:1029B0001343FB60034BFA685A6007F11407BD46E6
:1029C00080BC70470010024080B483B000AF7860D4
:1029D0000B46FB70FB78002B06D00A4B094A916925
:1029E0007A680A439A6107E0064B064A91697A6859
:1029F0006FEA02020A409A6107F10C07BD4680BCEB
:102A0000704700BF0010024080B483B000AF786010
:102A10000B46FB70FB78002B06D00A4B094AD169A4
:102A20007A680A43DA6107E0064B064AD1697A6898
:102A30006FEA02020A40DA6107F10C07BD4680BC6A
:102A4000704700BF0010024080B483B000AF7860D0
:102A50000B46FB70FB78002B06D00A4B094AD16865
:102A60007A680A43DA6007E0064B064AD1687A685A
:102A70006FEA02020A40DA6007F10C07BD4680BC2B
:102A8000704700BF0010024080B485B000AF78608E
:102A900039604FF00003FB817B681B88FB817A68FB
:102AA0002E4B9A4213D07A682D4B9A420FD07B68F6
:102AB000B3F1804F0BD07A682A4B9A4207D07A68DC
:102AC000294B9A4203D07A68284B9A4208D1FB8955
:102AD00023F07003FB813B685A88FB891343FB8119
:102AE0007A68234B9A420CD07A68224B9A4208D0DB
:102AF000FB8923F44073FB813B68DA88FB8913432D
:102B0000FB817B68FA891A803B689A887B689A8582
:102B10003B681A887B681A857A68104B9A420FD0F6
:102B20007A680F4B9A420BD07A68134B9A4207D0BF
:102B30007A68124B9A4203D07A68114B9A4204D1B8
:102B40003B681B7A1A467B681A867B684FF0010245
:102B50009A8207F11407BD4680BC7047002C0140E3
:102B6000003401400004004000080040000C004018
:102B700000100040001400400040014000440140AB
:102B80000048014080B485B000AF786039604FF0F4
:102B900000037B814FF00003FB814FF00003BB81FA
:102BA0007B681B8C9BB223F001039AB27B681A846A
:102BB0007B681B8CFB817B689B88BB817B681B8B44
:102BC0007B817B8923F070037B817B8923F0030366
:102BD0007B813B681A887B8913437B81FB8923F0C7
:102BE0000203FB813B681A89FB891343FB813B6825
:102BF0005A88FB891343FB817A68244B9A420FD091
:102C00007A68234B9A420BD07A68224B9A4207D0BB
:102C10007A68214B9A4203D07A68204B9A4223D19A
:102C2000FB8923F00803FB813B685A89FB89134326
:102C3000FB81FB8923F00403FB813B689A88FB89B5
:102C40001343FB81BB8923F48073BB81BB8923F4CD
:102C50000073BB813B689A89BB891343BB813B6886
:102C6000DA89BB891343BB817B68BA899A807B6808
:102C70007A891A833B68DA887B689A867B68FA8946
:102C80001A8407F11407BD4680BC7047002C014030
:102C90000034014000400140004401400048014030
:102CA00080B485B000AF786039604FF000037B815D
:102CB0004FF00003FB814FF00003BB817B681B8C4E
:102CC0009BB223F010039AB27B681A847B681B8C3A
:102CD000FB817B689B88BB817B681B8B7B817B89AD
:102CE00023F4E0437B817B8923F440737B813B6841
:102CF0001B884FEA03239AB27B8913437B81FB89AC
:102D000023F02003FB813B681B894FEA03139AB22F
:102D1000FB891343FB813B685B884FEA03139AB23C
:102D2000FB891343FB817A68244B9A4203D07A686B
:102D3000234B9A422FD1FB8923F08003FB813B6810
:102D40005B894FEA03139AB2FB891343FB81FB892A
:102D500023F04003FB813B689B884FEA03139AB240
:102D6000FB891343FB81BB8923F48063BB81BB894F
:102D700023F40063BB813B689B894FEA83039AB2CB
:102D8000BB891343BB813B68DB894FEA83039AB25B
:102D9000BB891343BB817B68BA899A807B687A8937
:102DA0001A833B68DA887B681A877B68FA891A84F9
:102DB00007F11407BD4680BC704700BF002C0140DE
:102DC0000034014080B485B000AF786039604FF0C6
:102DD00000037B814FF00003FB814FF00003BB81B8
:102DE0007B681B8C9BB223F480739AB27B681A8435
:102DF0007B681B8CFB817B689B88BB817B689B8B82
:102E00007B817B8923F070037B817B8923F0030323
:102E10007B813B681A887B8913437B81FB8923F480
:102E20000073FB813B681B894FEA03239AB2FB893D
:102E30001343FB813B685B884FEA03239AB2FB890B
:102E40001343FB817A68244B9A4203D07A68234B60
:102E50009A422FD1FB8923F40063FB813B685B8995
:102E60004FEA03239AB2FB891343FB81FB8923F4C6
:102E70008063FB813B689B884FEA03239AB2FB89FE
:102E80001343FB81BB8923F48053BB81BB8923F4AB
:102E90000053BB813B689B894FEA03139AB2BB89FD
:102EA0001343BB813B68DB894FEA03139AB2BB89AA
:102EB0001343BB817B68BA899A807B687A899A833D
:102EC0003B68DA887B689A877B68FA891A8407F1FD
:102ED0001407BD4680BC7047002C014000340140FF
:102EE00080B485B000AF786039604FF00003BB81DB
:102EF0004FF000037B814FF00003FB817B681B8C4C
:102F00009BB223F480539AB27B681A847B681B8C33
:102F10007B817B689B88FB817B689B8BBB81BB89AA
:102F200023F4E043BB81BB8923F44073BB813B683E
:102F30001B884FEA03239AB2BB891343BB817B8969
:102F400023F400537B813B681B894FEA03339AB219
:102F50007B8913437B813B685B884FEA03339AB2DA
:102F60007B8913437B817A68124B9A4203D07A683B
:102F7000114B9A420BD1FB8923F48043FB813B68C0
:102F80009B894FEA83139AB2FB891343FB817B68C9
:102F9000FA899A807B68BA899A833B68DA887B6869
:102FA000A3F840207B687A891A8407F11407BD468C
:102FB00080BC7047002C01400034014080B483B0D5
:102FC00000AF78607B684FF6FF729A807B684FF0A5
:102FD00000021A807B684FF00002DA807B684FF0B5
:102FE00000025A807B684FF000021A7207F10C074A
:102FF000BD4680BC704700BF80B483B000AF78602E
:103000000B46FB70FB78002B08D07B681B889BB2BB
:1030100043F001039AB27B681A8007E07B681B8843
:103020009BB223F001039AB27B681A8007F10C0768
:10303000BD4680BC704700BF80B483B000AF7860ED
:1030400013460A467A807B707B78002B08D07B6819
:103050009B899AB27B8813439AB27B689A810AE073
:103060007B689B899AB27B886FEA03039BB213400B
:103070009AB27B689A8107F10C07BD4680BC704705
:1030800080B487B000AFF86079813A81FB804FF05F
:103090000003FB824FF00003BB824FF000037B82F2
:1030A000FB681B89FB82FB681B8BBB82FB681B8C4C
:1030B0007B82FB8A23F00703FB82FA8A7B89134316
:1030C000FB82BB8A23F4407323F00303BB82BB8AD9
:1030D00043F4807343F00103BB827B8A23F0220315
:1030E0007B82FB884FEA03139AB23B8913439AB25F
:1030F0007B8A13437B82FB68FA8A1A81FB68BA8A4F
:103100001A83FB687A8A1A8407F11C07BD4680BCC3
:10311000704700BF80B483B000AF78600B46FB708F
:10312000FB78002B08D07B681B889BB243F08003A0
:103130009AB27B681A8007E07B681B889BB223F0F9
:1031400080039AB27B681A8007F10C07BD4680BCE9
:10315000704700BF80B485B000AF78600B467B80BD
:103160004FF00003FB817B681B8BFB81FB8923F005
:103170000803FB81FA897B881343FB817B68FA890A
:103180001A8307F11407BD4680BC704780B485B030
:1031900000AF78600B467B804FF00003FB817B68BB
:1031A0001B8BFB81FB8923F40063FB817B884FEA47
:1031B00003239AB2FB891343FB817B68FA891A8344
:1031C00007F11407BD4680BC704700BF80B485B0CE
:1031D00000AF78600B467B804FF00003FB734FF02D
:1031E0000003BB814FF000037B817B681B8A9AB28E
:1031F0007B881340BB817B689B899AB27B88134094
:103200007B81BB89002B06D07B89002B03D04FF03C
:103210000103FB7302E04FF00003FB73FB7B1846D6
:1032200007F11407BD4680BC704700BF80B483B06F
:1032300000AF78600B467B807B886FEA03039AB20D
:103240007B681A8207F10C07BD4680BC704700BF3F
:10325000002100F004B80C4B5B58435004310B487C
:103260000B4B42189A42FFF4F6AF0A4A00F003B83B
:10327000002342F8043B084B9A42FFF4F9AF00F0F8
:103280000FF8FEF735FD7047507F00080000002062
:103290001400002018000020D0030020FFF7FEBF1C
:1032A00080B500AF4FF48053C4F202034FF4805254
:1032B000C4F20202126842F001021A604FF4805216
:1032C000C4F202024FF48053C4F20203596800238F
:1032D000CFF6FF030B4053604FF48053C4F2020358
:1032E0004FF48052C4F20202126822F0847222F477
:1032F00080321A604FF48053C4F202034FF48052BC
:10330000C4F20202126822F480221A604FF4805341
:10331000C4F202034FF48052C4F20202526822F453
:10332000FE025A604FF48053C4F202034FF41F02AE
:103330009A604FF48053C4F202030022DA6200F074
:103340009FF84FF46D43CEF200034FF000629A6095
:1033500080BD00BF80B485B000AF0023FB600023B8
:10336000BB6000237B6000233B604FF48053C4F2BA
:1033700002035B6803F00C03FB60FB68042B0DD0B9
:10338000082B15D0002B50D140F20003C2F20003ED
:103390004FF49052C0F27A021A6050E040F20003FB
:1033A000C2F200034FF49052C0F27A021A6046E073
:1033B0004FF48053C4F202035B6803F47013BB60E4
:1033C0004FF48053C4F202035B6803F480337B60E4
:1033D000BB689B0C0233BB607B68002B0CD1BA68C6
:1033E0004FF41063C0F23D0303FB02F240F200030E
:1033F000C2F200031A6022E04FF48053C4F20203C9
:10340000DB6A03F00F0301333B604FF49053C0F2CB
:103410007A033A68B3FBF2F3BA6802FB03F240F2B4
:103420000003C2F200031A6009E040F20003C2F296
:1034300000034FF49052C0F27A021A6000BF4FF4BA
:103440008053C4F202035B6803F0F0031A0940F2F0
:103450000403C2F200039B5CDBB2FB6040F200039A
:10346000C2F200031A68FB68DA4040F20003C2F2BD
:1034700000031A601437BD465DF8047B704700BF37
:1034800080B500AF00F002F880BD00BF80B483B00B
:1034900000AF00237B6000233B604FF48053C4F2F5
:1034A00002034FF48052C4F20202126842F48032E6
:1034B0001A604FF48053C4F202031B6803F4003314
:1034C0003B607B6801337B603B68002B03D17B68EA
:1034D000B3F5A06FEDD14FF48053C4F202031B6823
:1034E00003F40033002B02D001233B6001E00023F2
:1034F0003B603B68012B6DD14FF48053C4F2020353
:103500004FF48052C4F2020252685A604FF4805362
:10351000C4F202034FF48052C4F2020252685A60AD
:103520004FF48053C4F202034FF48052C4F20202FB
:1035300052685A604FF48053C4F202034FF4805231
:10354000C4F20202526822F47C125A604FF4805393
:10355000C4F202034FF48052C4F20202526842F4F1
:1035600098125A604FF48053C4F202034FF4805211
:10357000C4F20202126842F080721A6000BF4FF477
:103580008053C4F202031B6803F00073002BF6D0D3
:103590004FF48053C4F202034FF48052C4F202028B
:1035A000526822F003025A604FF48053C4F20203BF
:1035B0004FF48052C4F20202526842F002025A6092
:1035C00000BF4FF48053C4F202035B6803F00C03A6
:1035D000082BF6D10C37BD465DF8047B704700BF61
:1035E0001840000000E0E0E0E00000000000000003
:1035F000E0E0E0E0000000000000000000FFFFFF4E
:10360000FF00000000000000FFFFFFFF0000E0E0FF
:10361000E000000000FFFFFFFFC08000000080C04E
:10362000FFFFFFFF00001C1C1C0000000000010346
:1036300007070F0F0F0F0F0707030100000000001F
:103640000000000000000000000038F8F8F8F8382A
:10365000000000000000000000000000000000006A
:10366000000000FFFFFFFF000000000000009C9C26
:103670009C00000000000000000000FFFFFFFF00B2
:103680000000000000000303030000000000000031
:103690000000070707070707000000000000000000
:1036A0000000000004180000000000000000000CF2
:1036B0000C0000000C1800FEFFFF07030307FFFFCC
:1036C000FE0000FFFFFF00000000FFFFFF000007FB
:1036D0000F0F0E0C0C0E0F0F07000C18000000004F
:1036E00000000007FFFFFF000000000000000000D6
:1036F000FFFFFF00000000000000000C0F0F0F0094
:103700000C18000E0F0F07030307FFFFFE0000FE5B
:10371000FEFE0E0E0E0E0F0F0700000F0F0F0E0C09
:103720000C0E0F0F0F000C18000E0F0F07030307EE
:10373000FFFFFE00000000000606060FFFFFF90075
:1037400000070F0F0E0C0C0E0F0F07000C1800FFD8
:10375000FFFF00000000FFFFFF0000030707060651
:103760000606FFFFFF0000000000000000000F0F32
:103770000F000C1800FFFFFF070303070F0F0F00D8
:1037800000070F0F0E0E0E0EFEFEFC0000070F0FBF
:103790000E0C0C0E0F0F07000C1800FEFFFF0703A6
:1037A00003070F0F0E0000FFFFFF0E06060EFEFEC2
:1037B000FC0000070F0F0E0C0C0E0F0F07000C186B
:1037C000000F0F0F07030387FFFFFF0000000080BB
:1037D000E0F8FE7F1F070100000C0F0F0F03000031
:1037E000000000000C1800FEFFFF07030307FFFFA7
:1037F000FE0000F9FFFF0F06060FFFFFF9000007AC
:103800000F0F0E0C0C0E0F0F07000C1800FEFFFF21
:1038100007030307FFFFFE00000107070606060671
:10382000FFFFFF0000070F0F0E0C0C0E0F0F07001D
:103830000840000000000000000000000000000040
:1038400000000000F0F00000F0F0000003070E0E92
:10385000070300000000000000000000000000005E
:1038600000000000E0F03838F0E000000707010138
:103870000707000018400000F8F83818189F1F9B31
:103880009B9B1B9B9F9F181838F8F80000000000B6
:10389000BFBFF0E0E0EFE0AFA8AFA0AFE8EFE0E03F
:1038A000F0BFBF0000000000FFFF810000007C545B
:1038B0007C007C447C00000081FFFF0000000000D1
:1038C000FDFD0F070707E7A5A505E525E70707079E
:1038D0000FFDFD0000000000EFEF7C3838383B2A78
:1038E0002B282B2A3B3838387CEFEF0000000000F3
:1038F0007F7FE0C0C0C0C7445F405F51DFC0C0C031
:10390000E07F7F0000000000FFFF03010101E9A943
:10391000B901F989F901010103FFFF00000000006E
:103920000707070606060606060606060606060634
:1039300007070700000018400000F8F83818189F23
:103940001F9B9B9B1B9B9F9F181838F8F80000003B
:103950000000BFBFF0E0E0EFE0AFA8AFA0AFE8EF3E
:10396000E0E0F0BFBF0000000000FFFF81000000AA
:103970007C547C007C447C00000081FFFF00000040
:103980000000FDFD0F070707E7A5A505E525E707EB
:1039900007070FFDFD0000000000EFEF7C3838380E
:1039A0003B2A2B282B2A3B3838387CEFEF000000CD
:1039B00000007F7FE0C0C0C0C7445F405F51DFC0F0
:1039C000C0C0E07F7F0000000000FFFFF9FDFFFFA7
:1039D000175747FF077707FFFFFDF9FFFF000000BC
:1039E000000007070405070707070707070707077A
:1039F000070705040700000018400000F8F8381811
:103A0000189F1F9B9B9B1B9B9F9F181838F8F800C3
:103A100000000000BFBFF0E0E0EFE0AFA8AFA0AF54
:103A2000E8EFE0E0F0BFBF0000000000FFFF810012
:103A300000007C547C007C447C00000081FFFF007F
:103A400000000000FDFD0F070707E7A5A505E52518
:103A5000E70707070FFDFD0000000000EFEF3CB88F
:103A6000F8F8FBEAEBE8EBEAFBF8F8B83CEFEF001C
:103A7000000000007F7FCFDFFFFFF87B607F606E7C
:103A8000E0FFFFDFCF7F7F0000000000FFFFF9FDB8
:103A9000FFFF175747FF077707BFFFFDF9FFFF003D
:103AA00000000000070704050707070707070707C7
:103AB0000707070504070700000018400000F8F892
:103AC0003818189F1F9B9B9B1B9B9F9F181838F8AB
:103AD000F80000000000BFBFF0E0E0EFE0AFA8AFEB
:103AE000A0AFE8EFE0E0F0BFBF0000000000FFFF84
:103AF000810000007C547C007C447C00000081FF3D
:103B0000FF0000000000FDFDE7F7FFFF1F5D5DFD0A
:103B10001DDD1FFFFFF7E7FDFD0000000000EFEFD8
:103B200039BBFFFFFCEDECEFECEDFCFFFFBB39EF29
:103B3000EF00000000007F7FCFDFFFFFF87B607F9A
:103B4000606EE0FFFFDFCF7F7F0000000000FFFF1F
:103B5000F9FDFFFF175747FF077707BFFFFDF9FF85
:103B6000FF00000000000707040507070707070715
:103B700007070707070504070700000018400000B3
:103B8000F8F83818189F1F9B9B9B1B9B9F9F18182A
:103B900038F8F80000000000BFBFF0E0E0EFE0AF51
:103BA000A8AFA0AFE8EFE0E0F0BFBF00000000006A
:103BB000FFFF3C7EFFFF83AB83FF83BB83FFFF7E62
:103BC0003CFFFF0000000000FDFDE7F7FFFF1F5D69
:103BD0005DFD1DDD1FFFFFF7E7FDFD00000000009C
:103BE000EFEF39BBFFFFFCEDECEFECEDFCFFFFBBB3
:103BF00039EFEF00000000007F7FCFDFFFFFF87B91
:103C0000607F606EE0FFFFDFCF7F7F00000000007D
:103C1000FFFFF9FDFFFF175747FF077707BFFFFDBE
:103C2000F9FFFF000000000007070405070707076A
:103C300007070707070707050407070000001840E4
:103C40000000F8F8C8E8F87FFF7B7B7BFB7B7F7F79
:103C5000F8E8C8F8F80000000000BFBFE7EFFFF089
:103C6000FFB0B7B0BFB0F7F0FFEFE7BFBF00000095
:103C70000000FFFF3C7EFFFF83AB83FF83BB83FF1E
:103C8000FF7E3CFFFF0000000000FDFDE7F7FFFFA7
:103C90001F5D5DFD1DDD1FFFFFF7E7FDFD0000005F
:103CA0000000EFEF39BBFFFFFCEDECEFECEDFCFFAC
:103CB000FFBB39EFEF00000000007F7FCFDFFFFF89
:103CC000F87B607F606EE0FFFFDFCF7F7F0000004A
:103CD0000000FFFFF9FDFFFF175747FF077707BFFA
:103CE000FFFDF9FFFF0000000000070704050707BC
:103CF000070707070707070707050407070000006E
:103D00006040FFFFFFFF0F0F0F0F000000000000DB
:103D100000000000000000000000000000000000A3
:103D20000000000000000000000000000000000093
:103D30000000000000000000000000000000000083
:103D40000000000000000000000000000000000073
:103D5000000000000000000000001F1F1F1FFFFFE9
:103D6000FFFF00000000F0F0F030303030F0F0F0F5
:103D700000B0B0B0000000008080808000000080B3
:103D80008080000080808000000080808000000033
:103D900000808080000080808080808000008080A3
:103DA00080000080808000B0B0B000808080808083
:103DB0008080008080800000000000000000010181
:103DC0000101000000007F7F7F000000007F7F7FF7
:103DD000007F7F7F00E0FCFF676367FFFCE0007F00
:103DE0007F7F0E0F3F797000787E7F070F7F7C709A
:103DF000007F7F7F0C3F7F7340617F3F3F000F0F4D
:103E00000F0C0C7F7F7F007F7F7F0001017F7F7F12
:103E10000101007F7F7F646C7C7C38000000000023
:103E20000000000000000000000000000000000092
:103E3000000000000001010100000001010100007C
:103E40000000000000000000000000000000000072
:103E50000000000000000000000000000000000062
:103E60000000000000000000000000000000000052
:103E70000000000000000000000000000000000042
:103E800000000000000000808080000000000000B2
:103E90000000000000000000000000000000000022
:103EA0000000000000000000000000000000000012
:103EB0000000000000000000000000000000000002
:103EC00000000000000000000000000000000000F2
:103ED00000000000000000000000000000000000E2
:103EE00000000000E0FCFFC7CFFFFEF08000FCFCFC
:103EF000FCE070F8FC9C000C3CFCF080C0FCFC1C5E
:103F000000FCFCF870E0C0E070F8FCFC001C7CFCDD
:103F1000E0C0FC7C1C80C0F83C7CFCE0000038BCAD
:103F2000ECCC4CFCFCFC000C0CFCFCFC0C0CE0F89D
:103F3000FC0C0C0CFCF8F000FCFCFC180C0CFCFC61
:103F4000F000000707010000000001070700070755
:103F5000070000000707070000181F1F1F070000C9
:103F60000007070700010301000707070000181FEB
:103F70001F1F0300060707010000030707000707CC
:103F80000300000707070000000707070000000301
:103F900003070606030300001F1F1F03060607038F
:103FA0000100FFFFFFFFF0F0F0F000000000000054
:103FB0000000000000000000000000000000000001
:103FC00000000000000000000000000000000000F1
:103FD00000000000000000000000000000000000E1
:103FE00000000000000000000000000000000000D1
:103FF00000000000000000000000F0F0F0F0FFFF03
:10400000FFFF000060400000000000000000000012
:1040100000000000000000000000000000000000A0
:104020000000000000000000000000000000000090
:104030000000000000000000000000000000000080
:104040000000000000000000000000000000000070
:104050000000000000000000000000000000000060
:104060000000000000000000000000000000000050
:104070000000000000000000000000000000000040
:104080000000000000000000000000000000000030
:104090000000000000000000000000000000000020
:1040A0000000000000000000000000000000000010
:1040B0000000000000000000000000000000000000
:1040C00000000000000000000000000000000000F0
:1040D00000000000000000000000000000000000E0
:1040E00000000000000000000000000000000000D0
:1040F00000000000000000000000000000000000C0
:1041000000000000000000000000000000000000AF
:10411000000000000000000000000000000000009F
:10412000000000000000000000000000000000008F
:10413000000000000000000000000000000000007F
:10414000000000000000000000000000000000006F
:104150000000000080C0E0F8FCFCF8E0C080000037
:10416000000000000000000000000000000000004F
:10417000000000000000000000000000000000003F
:10418000000000000000000000000000000000002F
:10419000000000000000000000000000000000001F
:1041A000000000000000000000000000000000000F
:1041B00000000407070707070707070707070704A3
:1041C00000000000000000000000000000000000EF
:1041D00000000000000000000000000000000000DF
:1041E00000000000000000000000000000000000CF
:1041F00000000000000000000000000000000000BF
:1042000000000000000000000000000000000000AE
:10421000000000000000000000000000000000009E
:10422000000000000000000000000000000000008E
:10423000000000000000000000000000000000007E
:10424000000000000000000000000000000000006E
:10425000000000000000000000000000000000005E
:10426000000000000000000000000000000000004E
:10427000000000000000000000000000000000003E
:10428000000000000000000000000000000000002E
:10429000000000000000000000000000000000001E
:1042A000000000000000000000000000000000000E
:1042B00000000000000000000000000000000000FE
:1042C00000000000000000000000000000000000EE
:1042D00000000000000000000000000000000000DE
:1042E00000000000000000000000000000000000CE
:1042F00000000000000000000000000000000000BE
:10430000000000000000604000000000000000000D
:10431000000000000000000000000000000000009D
:10432000000000000000000000000000000000008D
:10433000000000000000000000000000000000007D
:10434000000000000000000000000000000000006D
:10435000000000000000000000000000000000005D
:10436000000000000000000000000000000000004D
:10437000000000000000000000000000000000003D
:10438000000000000000000000000000000000002D
:104390000000000000000000000080E0800000003D
:1043A000000000000000000000000000000000000D
:1043B00000000000000000000000000000000000FD
:1043C00000000000000000000000000000000000ED
:1043D00000000000000000000000000000000000DD
:1043E00000000000000000000000000000000000CD
:1043F00000000080C0E0F0FCFE7F1F1F3F7FFEF842
:10440000F0E0C0000000000000000000000000001C
:10441000000000000000000000000000000000009C
:10442000000000000000000000000000000000008C
:10443000000000000000000000000000000000007C
:104440000000000000000000000000000080C0F03C
:10445000F8FCFE3F1F0F83C1E0F8FCFCF8E0C083CE
:10446000070F3F7FFEF8F0E0C08000000000000072
:10447000000000000000000000000000000000003C
:10448000000000000000000000000000000000002C
:10449000000000000000000000000000000000001C
:1044A00000000000000000000000000607070707EA
:1044B00003010000040707070707070707070707A7
:1044C00007040000000307070707060400000000B8
:1044D00000000000000000000000000000000000DC
:1044E00000000000000000000000000000000000CC
:1044F00000000000000000000000000000000000BC
:1045000000000000000000000000000000000000AB
:10451000000000000000000000000000000000009B
:10452000000000000000000000000000000000008B
:10453000000000000000000000000000000000007B
:10454000000000000000000000000000000000006B
:10455000000000000000000000000000000000005B
:10456000000000000000000000000000000000004B
:10457000000000000000000000000000000000003B
:10458000000000000000000000000000000000002B
:10459000000000000000000000000000000000001B
:1045A000000000000000000000000000000000000B
:1045B00000000000000000000000000000000000FB
:1045C00000000000000000000000000000000000EB
:1045D00000000000000000000000000000000000DB
:1045E00000000000000000000000000000000000CB
:1045F00000000000000000000000000000000000BB
:10460000000000000000000060400000000000000A
:10461000000000000000000000000000000000009A
:10462000000000000000000000000000000000008A
:10463000000000000000000000000000000000007A
:10464000000000000000000000000000000000006A
:10465000000000000000000000000000000000005A
:10466000000000000000000000000000000000004A
:10467000000000000000000000000000000000003A
:10468000000000000000000000000000000000002A
:1046900000000080C0F0F8FCFE7F1C0880E0800075
:1046A000000000000000000000000000000000000A
:1046B00000000000000000000000000000000000FA
:1046C00000000000000000000000000000000000EA
:1046D00000000000000000000000000000000000DA
:1046E00000000000000000000000000080C0E0F0BA
:1046F000FCFE7F3F1F8FC3E1F0FCFE7F1F1F3F7F4B
:10470000FEF8F0E0C0000000000000000000000023
:104710000000000000000000000000000000000099
:104720000000000000000000000000000000000089
:104730000000000000000000000000000000000079
:1047400000000000000080E0F0F8FCFE7F1F0F87F3
:10475000C3F0F8FCFE3F1F0F83C1E0F8FCFCF8E05B
:10476000C083070F3F7FFEF8F0E0C080000000002C
:104770000000000000000000000000000000000039
:104780000000000000000000000000000000000029
:104790000000000000000000000000000000000019
:1047A00000000004060707070703010000060707CB
:1047B00007070301000004070707070707070707A4
:1047C00007070704000000030707070706040000A7
:1047D00000000000000000000000000000000000D9
:1047E00000000000000000000000000000000000C9
:1047F00000000000000000000000000000000000B9
:1048000000000000000000000000000000000000A8
:104810000000000000000000000000000000000098
:104820000000000000000000000000000000000088
:104830000000000000000000000000000000000078
:104840000000000000000000000000000000000068
:104850000000000000000000000000000000000058
:104860000000000000000000000000000000000048
:104870000000000000000000000000000000000038
:104880000000000000000000000000000000000028
:104890000000000000000000000000000000000018
:1048A0000000000000000000000000000000000008
:1048B00000000000000000000000000000000000F8
:1048C00000000000000000000000000000000000E8
:1048D00000000000000000000000000000000000D8
:1048E00000000000000000000000000000000000C8
:1048F00000000000000000000000000000000000B8
:104900000000000000000000000060400000000007
:104910000000000000000000000000000000000097
:104920000000000000000000000000000000000087
:104930000000000000000000000000000000000077
:104940000000000000000000000000000000000067
:104950000000000000000000000000000000000057
:104960000000000000000000000000000000000047
:104970000000000000000000000000000000000037
:104980000000000000000000000000000000000027
:10499000000000000080C0F0F8FCFE7F1C0880E0F2
:1049A0008000000000000000000000000000000087
:1049B00000000000000000000000000000000000F7
:1049C00000000000000000000000000000000000E7
:1049D00000000000000000000000000000000000D7
:1049E000000000000000000000000000000080C087
:1049F000E0F0FCFE7F3F1F8FC3E1F0FCFE7F1F1F36
:104A00003F7FFEF8F0E0C000000000000000000062
:104A10000000000000000000000000000000000096
:104A20000000000000000000000000000000000086
:104A30000000000000000000000000000000000076
:104A4000000000000000000080E0F0F8FCFE7F1F86
:104A50000F87C3F0F8FCFE3F1F0F83C1E0F8FCFC9A
:104A6000F8E0C083070F3F7FFEF8F0E0C080000051
:104A70000000000000000000000000000000000036
:104A80000000000000000000000000000000000026
:104A90000000000000000000000000000000000016
:104AA00000000000000406070707070301000006D6
:104AB00007070707030100000407070707070707A1
:104AC0000707070707040000000307070707060496
:104AD00000000000000000000000000000000000D6
:104AE0000000000000000000000000000000008046
:104AF00080808080000000000000000000000000B6
:104B000000000000000000000000000000000000A5
:104B10000000000000000000000000000000000095
:104B20000000000000000000000000000000000085
:104B30000000000000000000000000000000000075
:104B40000000000000000000000000000020383FCE
:104B50002F0D0D07070000000000000000000000FE
:104B60000000000000000000000000000000000045
:104B70000000000000000000000000000000000035
:104B80000000000000000000000000000000000025
:104B90000000000000000000000000000000000015
:104BA0000000000000000000000000000000000005
:104BB00000000000000000000000000000000000F5
:104BC00000000000000000000000000000000000E5
:104BD00000000000000000000000000000000000D5
:104BE00000000000000000000000000000000000C5
:104BF00000000000000000000000000000000000B5
:104C00000000000000000000000000006040000004
:104C10000000000000000000000000000000000094
:104C20000000000000000000000000000000000084
:104C30000000000000000000000000000000000074
:104C40000000000000000000000000000000000064
:104C50000000000000000000000000000000000054
:104C60000000000000000000000000000000000044
:104C70000000000000000000000000000000000034
:104C80000000000000000000000000000000000024
:104C90000000000000000080C0F0F8FCFE7F1C084F
:104CA00080E0800000000000000000000000000024
:104CB00000000000000000000000000000000000F4
:104CC00000000000000000000000000000000000E4
:104CD00000000000000000000000000000000000D4
:104CE00000000000000000000000000000000000C4
:104CF00080C0E0F0FCFE7F3F1F8FC3E1F0FCFE7F31
:104D00001F1F3F7FFEF8F0E0C00000000000000021
:104D10000000000000000000000000000000000093
:104D20000000000000000000000000000000000083
:104D30000000000000000000000000000000000073
:104D40000000000000000000000080E0F0F8FCFE21
:104D50007F1F0F87C3F0F8FCFE3F1F0F83C1E0F8F1
:104D6000FCFCF8E0C083070F3F7FFEF8F0E0C08056
:104D70000000000000000000000000000000000033
:104D80000000000000000000000000000000000023
:104D90000000000000000000000000000000000013
:104DA00000000000000000040607070707030100D9
:104DB00000060707070703010000040707070707A6
:104DC000070707070707070400000003070707078F
:104DD00006040000000000000000000000000000C9
:104DE00000000000000000000000000000000000C3
:104DF00000808080808000000080808080800000B3
:104E000000000000000000000000000000000000A2
:104E10000000000000000000000000000000000092
:104E20000000000000000000000000000000000082
:104E30000000000000000000000000000000000072
:104E40000000000000000000000000000000002042
:104E5000383F2F0D0D0707303C3F37353D1F03000E
:104E60000000000000000000000000000000000042
:104E70000000000000000000000000000000000032
:104E80000000000000000000000000000000000022
:104E90000000000000000000000000000000000012
:104EA0000000000000000000000000000000000002
:104EB00000000000000000000000000000000000F2
:104EC00000000000000000000000000000000000E2
:104ED00000000000000000000000000000000000D2
:104EE00000000000000000000000000000000000C2
:104EF00000000000000000000000000000000000B2
:104F00000000000000000000000000000000604001
:104F10000000000000000000000000000000000091
:104F20000000000000000000000000000000000081
:104F30000000000000000000000000000000000071
:104F40000000000000000000000000000000000061
:104F50000000000000000000000000000000000051
:104F60000000000000000000000000000000000041
:104F70000000000000000000000000000000000031
:104F80000000000000000000000000000000000021
:104F900000000000000000000080C0F0F8FCFE7F70
:104FA0001C0880E0800000000000000000000000FD
:104FB00000000000000000000000000000000000F1
:104FC00000000000000000000000000000000000E1
:104FD00000000000000000000000000000000000D1
:104FE00000000000000000000000000000000000C1
:104FF000000080C0E0F0FCFE7F3F1F8FC3E1F0FCAB
:10500000FE7F1F1F3F7FFEF8F0E0C00000000000A1
:105010000000000000000000000000000000000090
:105020000000000000000000000000000000000080
:105030000000000000000000000000000000000070
:1050400000000000000000000000000080E0F0F818
:10505000FCFE7F1F0F87C3F0F8FCFE3F1F0F83C1CC
:10506000E0F8FCFCF8E0C083070F3F7FFEF8F0E0BB
:10507000C0800000000000000000000000000000F0
:105080000000000000000000000000000000000020
:105090000000000000000000000000000000000010
:1050A00000000000000000000004060707070703D7
:1050B00001000006070707070301000004070707B0
:1050C000070707070707070707040000000307078C
:1050D00007070604000000000000000000000000B8
:1050E00000000000000000000000000000000000C0
:1050F00000000080808080800000008080808080B0
:10510000000000808080808000000000000000001F
:10511000000000000000000000000000000000008F
:10512000000000000000000000000000000000007F
:10513000000000000000000000000000000000006F
:10514000000000000000000000000000000000005F
:105150000020383F2F0D0D0707303C3F37353D1FEE
:105160000320383F2F0D0D0707000000000000004E
:10517000000000000000000000000000000000002F
:10518000000000000000000000000000000000001F
:10519000000000000000000000000000000000000F
:1051A00000000000000000000000000000000000FF
:1051B00000000000000000000000000000000000EF
:1051C00000000000000000000000000000000000DF
:1051D00000000000000000000000000000000000CF
:1051E00000000000000000000000000000000000BF
:1051F00000000000000000000000000000000000AF
:10520000000000000000000000000000000000009E
:1052100060400000000000000000000000000000EE
:10522000000000000000000000000000000000007E
:10523000000000000000000000000000000000006E
:10524000000000000000000000000000000000005E
:10525000000000000000000000000000000000004E
:10526000000000000000000000000000000000003E
:10527000000000000000000000000000000000002E
:10528000000000000000000000000000000000001E
:10529000000000000000000000000080C0F0F8FCEA
:1052A000FE7F1C0880E0800000000000000000007D
:1052B00000000000000000000000000000000000EE
:1052C00000000000000000000000000000000000DE
:1052D00000000000000000000000000000000000CE
:1052E00000000000000000000000000000000000BE
:1052F0000000000080C0E0F0FCFE7F3F1F8FC3E194
:10530000F0FCFE7F1F1F3F7FFEF8F0E0C0000000B2
:10531000000000000000000000000000000000008D
:10532000000000000000000000000000000000007D
:10533000000000000000000000000000000000006D
:10534000000000000000000000000000000080E0FD
:10535000F0F8FCFE7F1F0F87C3F0F8FCFE3F1F0F25
:1053600083C1E0F8FCFCF8E0C083070F3F7FFEF844
:10537000F0E0C0800000000000000000000000001D
:10538000000000000000000000000000000000001D
:10539000000000000000000000000000000000000D
:1053A00000000000000000000000000406070707DE
:1053B00007030100000607070707030100000407B1
:1053C0000707070707070707070707040000000389
:1053D00007070707060400000000000000000000A7
:1053E00000000000000000000000000000000000BD
:1053F00000000000008080808080000000808080AD
:10540000808000000080808080800000000000001C
:10541000008080808080000000000000000000000C
:10542000000000000000000000000000000000007C
:10543000000000000000000000000000000000006C
:10544000000000000000000000000000000000005C
:1054500000000020383F2F0D0D0707303C3F373547
:105460003D1F0320383F2F0D0D0707000020303C63
:105470003F3735310101000000000000000000004E
:10548000000000000000000000000000000000001C
:10549000000000000000000000000000000000000C
:1054A00000000000000000000000000000000000FC
:1054B00000000000000000000000000000000000EC
:1054C00000000000000000000000000000000000DC
:1054D00000000000000000000000000000000000CC
:1054E00000000000000000000000000000000000BC
:1054F00000000000000000000000000000000000AC
:10550000000000000000000000000000000000009B
:1055100000006040000000000000000000000000EB
:10552000000000000000000000000000000000007B
:10553000000000000000000000000000000000006B
:10554000000000000000000000000000000000005B
:10555000000000000000000000000000000000004B
:10556000000000000000000000000000000000003B
:10557000000000000000000000000000000000002B
:10558000000000000000000000000000000000001B
:105590000000000000000000000000000080C0F0DB
:1055A000F8FCFE7F1C0880E0800000000000000086
:1055B00000000000000000000000000000000000EB
:1055C00000000000000000000000000000000000DB
:1055D00000000000000000000000000000000000CB
:1055E00000000000000000000000000000000000BB
:1055F00000000000000080C0E0F0FCFE7F3F1F8F35
:10560000C3E1F0FCFE7F1F1F3F7FFEF8F0E0C0000B
:10561000000000000000000000000000000000008A
:10562000000000000000000000000000000000007A
:10563000000000000000000000000000000000006A
:10564000000000000000000000000000000000005A
:1056500080E0F0F8FCFE7F1F0F87C3F0F8FCFE3FF0
:105660001F0F83C1E0F8FCFCF8E0C083070F3F7F09
:10567000FEF8F0E0C0800000000000000000000024
:10568000000000000000000000000000000000001A
:10569000000000000000000000000000000000000A
:1056A00000000000000000000000000000040607E9
:1056B00007070703010000060707070703010000AB
:1056C000040707070707070707070707070400007E
:1056D00000030707070706040000000000000000A1
:1056E00000000000000000000000000000000000BA
:1056F00000000000000000808080808000000080AA
:105700008080808000000080808080800000000019
:105710000000008080808080000080800000000009
:105720000000000000000000000000000000000079
:105730000000000000000000000000000000000069
:105740000000000000000000000000000000000059
:10575000000000000020383F2F0D0D0707303C3FB0
:1057600037353D1F0320383F2F0D0D070700002060
:10577000303C3F37353101313C3F2701000000000C
:105780000000000000000000000000000000000019
:105790000000000000000000000000000000000009
:1057A00000000000000000000000000000000000F9
:1057B00000000000000000000000000000000000E9
:1057C00000000000000000000000000000000000D9
:1057D00000000000000000000000000000000000C9
:1057E00000000000000000000000000000000000B9
:1057F00000000000000000000000000000000000A9
:105800000000000000000000000000000000000098
:1058100000000000604000000000000000000000E8
:105820000000000000000000000000000000000078
:105830000000000000000000000000000000000068
:105840000000000000000000000000000000000058
:105850000000000000000000000000000000000048
:105860000000000000000000000000000000000038
:105870000000000000000000000000000000000028
:105880000000000000000000000000000000000018
:105890000000000000000000000000000000008088
:1058A000C0F0F8FCFE7F1C0880E0800000000000D3
:1058B00000000000000000000000000000000000E8
:1058C00000000000000000000000000000000000D8
:1058D00000000000000000000000000000000000C8
:1058E00000000000000000000000000000000000B8
:1058F000000000000000000080C0E0F0FCFE7F3FE0
:105900001F8FC3E1F0FCFE7F1F1F3F7FFEF8F0E01A
:10591000C0000000000000000000000000000000C7
:105920000000000000000000000000000000000077
:105930000000000000000000000000000000000067
:105940000000000000000000000000000000000057
:10595000000080E0F0F8FCFE7F1F0F87C3F0F8FC2A
:10596000FE3F1F0F83C1E0F8FCFCF8E0C083070F87
:105970003F7FFEF8F0E0C080000000000000000063
:105980000000000000000000000000000000000017
:105990000000000000000000000000000000000007
:1059A00000000000000000000000000000000004F3
:1059B000060707070703010000060707070703019B
:1059C000000004070707070707070707070707047B
:1059D000000000030707070706040000000000009E
:1059E00000000000000000000000000000000000B7
:1059F0000000000000000000008080808080000027
:105A00000080808080800000008080808080000096
:105A10000000000000808080808000008080000006
:105A20000000000000000000000000000000000076
:105A30000000000000000000000000000000000066
:105A40000000000000000000000000000000000056
:105A50000000000000000020383F2F0D0D07073028
:105A60003C3F37353D1F0320383F2F0D0D07070002
:105A70000020303C3F37353101313C3F27193C2E67
:105A80002A2E360000000000000000000000000088
:105A90000000000000000000000000000000000006
:105AA00000000000000000000000000000000000F6
:105AB00000000000000000000000000000000000E6
:105AC00000000000000000000000000000000000D6
:105AD00000000000000000000000000000000000C6
